:020000040800F2
:10000000500900202D02000865250008A1230008E2
:100010006125000869040008C128000800000000EC
:10002000000000000000000000000000A5260008FD
:10003000850400080000000069250008A9260008C2
:10004000470200084702000847020008470200086C
:10005000470200084702000847020008470200085C
:10006000470200084702000847020008470200084C
:10007000470200084702000847020008470200083C
:1000800047020008470200084702000879040008F8
:100090006D040008470200084702000847020008F4
:1000A000470200084702000847020008470200080C
:1000B00047020008470200084702000847020008FC
:1000C0004702000847020008470200086D250008A3
:1000D00047020008470200084702000847020008DC
:1000E00047020008470200084702000847020008CC
:1000F00047020008470200084702000847020008BC
:1001000047020008470200084702000847020008AB
:100110004702000847020008692700084702000854
:10012000470200084702000847020008470200088B
:10013000470200084702000847020008470200087B
:10014000470200084702000847020008470200086B
:10015000470200084702000847020008470200085B
:10016000470200084702000847020008470200084B
:10017000470200084702000847020008000000008C
:10018000470200084702000800F002F800F03EF8BD
:100190000AA090E8000C82448344AAF10107DA45E2
:1001A00001D100F033F8AFF2090EBAE80F0013F0F6
:1001B000010F18BFFB1A43F0010318474C4300001E
:1001C0006C430000103A24BF78C878C1FAD85207AF
:1001D00024BF30C830C144BF04680C6070470000C1
:1001E0000023002400250026103A28BF78C1FBD840
:1001F000520728BF30C148BF0B6070471FB504F0DD
:100200000AF900F0D5F81FBD10B510BD00F0F6F8E2
:100210001146FFF7F3FF02F09DFE00F014F903B45E
:10022000FFF7F2FF03BC00F017F900000948804710
:1002300009480047FEE7FEE7FEE7FEE7FEE7FEE7C8
:10024000FEE7FEE7FEE7FEE704480549054A064BE0
:10025000704700005527000889010008500300205E
:1002600050090020500500205005002053EA020CE0
:1002700000F069802DE9F04B4FF00006002B1FBF06
:10028000B3FA83F503FA05F424FA05F65E4012BFCB
:100290001643B2FA82F502FA05F4C5F120051EBF35
:1002A00022FA05FC44EA0C04203556EA044C4FEAD5
:1002B000144418BF641C4FF000084FF0000990422E
:1002C00071EB030C39D3002919BFB1FA81F701FA98
:1002D00007F6B0FA80F700FA07F6C7F120071EBF4D
:1002E00020FA07FC46EA0C062037B6FBF4FCA7EB25
:1002F0000507103F07F01F0BCBF120062CFA06F67E
:100300000CFA0BFB44BFB3460026202FA4BF5E4669
:100310004FF0000B5BEA060C08BF4FF0010B19EB26
:100320000B0948EB0608ABFB027C06FB02CC0BFB7F
:1003300003CCC01B71EB0C01C1E70B4602464146E2
:100340004846BDE8F08B13B5084318BF4FF0FF30A7
:100350000146AFF30080BDE81C4070474FF000023B
:1003600000B5134694469646203922BFA0E80C50AB
:10037000A0E80C50B1F12001BFF4F7AF090728BF86
:10038000A0E80C5048BF0CC05DF804EB890028BF02
:1003900040F8042B08BF704748BF20F8022B11F02B
:1003A000804F18BF00F8012B7047704770477047A7
:1003B00070B5064C7C44064D7D4404E0204601683F
:1003C00008448047241DAC42F8D170BD7041000044
:1003D0007041000010B500F009F8006810BD10B5BC
:1003E000044600F003F8046010BD000000487047A8
:1003F0006800002000487047680000207546FFF73D
:10040000F9FFAE4605006946534620F007008546D1
:1004100018B020B5FFF718FFBDE820404FF00006E8
:100420004FF000074FF000084FF0000BAC46ACE86F
:10043000C009ACE8C009ACE8C009ACE8C00921F0CB
:1004400007018D46704710B50446AFF30080204683
:10045000BDE81040FFF7E3BE01491820ABBEFEE740
:100460002600020070470000FEE7000040F2E000B6
:10047000C2F2000000F084B940F2E000C2F20000D5
:1004800000F07EB97047000072B600BFFEE70000C2
:1004900090F82020013A012A08D8006800F11402DF
:1004A0000020136819431160704700BF00F1240257
:1004B00001204FF480211368194311607047000038
:1004C00010B590F820E0D0F800C0AEF1010EBEF1FA
:1004D000010FDCF808E011D81EF0E05F18D0CEF371
:1004E000016E012000FA0EF018608B68D3B14868E5
:1004F000CC6844EAC000034318E000BF00F12401C7
:1005000001204FF480220B681A430A6010BD00BF1F
:1005100000F1240101204FF400120B681A430A6015
:1005200010BD00BF0868CB6843EA40530CEB0E10C7
:10053000C0F880310B69C0F88431097D012905D1EB
:1005400000F5C2710B6843F480730B605168C0F80A
:100550008C11126800F5C071C0F8882100200122BA
:100560000B681A430A6010BDB0B590F82020013A1C
:10057000012A2FD846F20060C4F20000026842F05F
:1005800001020260026822F47C520260D1F814E099
:10059000CC694A6A0368012C43EA022202600EF029
:1005A0001F024FF0010303FA02F2C3696FEA020C63
:1005B00023EA0203C36113D02CBBC36803EA0C0314
:1005C000C360CB688C8844EA034300EBCE04236409
:1005D0000B4611E0416A41F4802141620120B0BD27
:1005E000C3681343C3600B688C8844EA034300EB81
:1005F000CE04236401F10C038C681B8843EA044396
:1006000000EBCE04636443688D6943EA0204D1F8C9
:1006100010E0096A002D08BF03EA0C044460436936
:10062000BEF1000F43EA020408BF03EA0C040129EB
:10063000446102D1C1691143C161016821F0010126
:1006400001600020B0BD00007047000010B590F8B8
:100650002040013C012C7BD8D0F800C0002900F0DC
:100660008180DCF81040A40700F081800CEB011CB5
:10067000DCF8B0410CF5D87E14F004049460DCF88A
:10068000B04119BFE4085460640D1460DEF8004006
:100690000CF5DA7E04F00204D460DCF8B4412407DF
:1006A0005ABFDEF8004004F00F0408241461DEF89D
:1006B00000400029C4F307249461DEF800404FEAAB
:1006C00014445461DCF8B8211A70026802EB01127C
:1006D000D2F8B8214FEA12225A70026802EB0112D6
:1006E000D2F8B8214FEA12429A70026802EB011266
:1006F000D2F8B8214FEA1262DA70026802EB0112F6
:10070000D2F8BC211A71026802EB0112D2F8BC21A6
:100710004FEA12225A71026802EB0112D2F8BC2190
:100720004FEA12429A71026802EB0112D2F8BC2120
:100730004FEA1262DA71006814BF00F1100100F193
:100740000C01002020220B681A430A6010BD00BF74
:1007500000F1240101204FF480220B681A430A6043
:1007600010BD00BFDCF80C40A4077FF47FAF00F1A0
:10077000240101204FF400120B681A430A6010BDD7
:100780002DE9F04F81B0044600684669D0F8049026
:100790008768D0F80CB0D0F810A0D0F81880F10716
:1007A00004D1002530071DD424E000BFF90710D084
:1007B0000121BA07816009D4780700F1AF803807BA
:1007C00000F1B680204600F017FA02E0204600F063
:1007D00015FA0025F80500F18780F80300F1B180D3
:1007E000300707D51BF0100004D0206845F40075D1
:1007F0001021C160700708D51BF0080005D02068E3
:100800000821C160204600F0A9F9B00706D520688C
:10081000C068800702D0204600F0A2F9700607D514
:100820001AF0100004D0206845F4806510210161A1
:10083000B00608D51AF0080005D02068082101612B
:10084000204600F0A5F9F00606D52068006980076B
:1008500002D0204600F09EF9B00308D519F0100030
:1008600005D0206810214160204600F095F9F00382
:1008700008D519F0080005D02068082141602046FD
:1008800000F0C6F9300440F19B805FEA497040F106
:10089000948006F4807008EA102028435FEA88718B
:1008A000014648BF41F00201B20558BF01465FEA68
:1008B00048700D4648BF45F00405700558BF0D4609
:1008C000300540F17A8018F0700000F07680103822
:1008D000000905286CD8DFE800F003595D616569FF
:1008E00045F0080564E000BF20684FF48071BA0548
:1008F00081600BD4780515D438051DD4204600F04E
:100900007FF9F8037FF56CAF1BE000BF204600F0D5
:1009100079F9F8037FF564AF13E000BF4FF4006589
:1009200058E700BF05F50055F8037FF559AF08E01B
:100930004FF480554EE700BF05F58045F8037FF57D
:100940004FAF20684FF48031BA0381600AD4780336
:1009500010D4380314D4204600F056F930073FF580
:1009600041AF47E7204600F051F930073FF53AAF75
:1009700040E700BF05F5004530073FF533AF39E7E5
:1009800005F5803530073FF52DAF33E745F010050D
:100990000EE000BF45F020050AE000BF45F040052D
:1009A00006E000BF45F0800502E000BF45F4807519
:1009B0002068816921F07001816120680421416013
:1009C00055B1606A40EA05012046616201B0BDE8A8
:1009D000F04FFFF739BE00BF01B0BDE8F08F000057
:1009E000B0B5C8B1044690F8200010B9204600F018
:1009F00071F82068016841F00101016000F0F6F92A
:100A0000054600BF20684168C90707D100F0EEF92C
:100A1000401B0B28F6D312E00120B0BD016821F085
:100A20000201016000F0E2F9054600BF206841685C
:100A300089070DD500F0DAF9401B0B28F6D3606A60
:100A4000052140F400306062012084F82010B0BD20
:100A5000217E0268012922F0800208BF80320260F4
:100A6000617E0268012922F0400208BF4032026024
:100A7000A17E0268012922F0200208BF2032026014
:100A8000E17E0268012922F0100218BF10320260D4
:100A9000217F0268012922F0080208BF08320260A3
:100AA000617F0268012922F0040208BF043202605B
:100AB000D4E901C2D4E9033561691A432A431143D9
:100AC000ACF101021143C16100200121606284F890
:100AD0002010B0BD80B586B0016846F20040C4F277
:100AE0000000814202D006B080BD00BF002143F665
:100AF00030020191C4F20202136900F5D43043F0D0
:100B000000731361136903F000730193019B01915A
:100B1000136843F0080313601268022302F008020E
:100B20000192019ACDE9023109210322059101A91F
:100B30000192049200F080F813200021002200F0BE
:100B4000D9F9132000F0C2F914200021002200F08E
:100B5000D1F9142000F0BAF906B080BD704700004A
:100B600080B540F2E001C2F20001006809688842E5
:100B700018BF80BD40F2A810C2F2000002F014F9C4
:100B800040F27C20C2F20000BDE8804002F00CB9C7
:100B9000704700007047000070470000B0B5044681
:100BA00090F8200001281DD1022084F82000206840
:100BB000016821F00101016000F018F9054600BF4D
:100BC00020684068C00713D000F010F9401B0B28C4
:100BD000F6D3606A40F400306062052084F820009B
:100BE0000120B0BD606A40F4002060620120B0BD09
:100BF00000206062B0BD0000704700007047000038
:100C00007047000070470000704700007047000008
:100C10007047000090F83510022909D1052180F8AD
:100C200035100068016821F0010101600020704763
:100C300080214165012070472DE9F04F82B000F11D
:100C40003E4241F6004502F1FF77C4F20205082258
:100C500043F6004E4FEAB726A84208BF0722C4F267
:100C6000010E072E38BF4FEAB722012500260027C4
:100C70004FF00008009208E008F101080437B8F1CD
:100C8000100F06F1020600F0A7800C6805FA08F9BB
:100C900014EA090FF0D0D1F804B003220BF0030CD2
:100CA000ACF10104B240012C6FEA020A10D882684C
:100CB000CC6802EA0A02B440224382604268CBF365
:100CC000001422EA090204FA08F42243426005E013
:100CD000BCF1030F02D14FF0030C20E0C2688C6816
:100CE00002EA0A02B4402243BCF1020FC26016D1EC
:100CF0006FF0030202EA58020244D2F820C007F063
:100D00001C050F230C69AB402CEA030304FA05F51C
:100D10002B431362D1F804B001250BF0030C0268D9
:100D20000CFA06F302EA0A021A431BF4403F02607F
:100D3000A2D0002243F644030192C4F202031A68CF
:100D40004FF6084C42F480421A601A68CFF6FF7CD6
:100D500002F480420192019A28F00302724452F890
:100D60000C3007F00C050F24AC40A343009C04FAA0
:100D700005F52B4342F80C30DEF808204B6842EAB8
:100D8000090543F60C4CDC0258BF22EA0905CEF8EF
:100D90000850C4F2010CDCF800209C0242EA09056C
:100DA00058BF22EA0905CCF80050DEF804209C0365
:100DB00042EA090558BF22EA0905CEF80450DEF8D8
:100DC0000020DB0342EA090558BF22EA0905CEF8F4
:100DD0000050012550E700BF02B0BDE8F08F0000D1
:100DE000002A08BF090481617047000040F27820A2
:100DF000C2F200000068704740F2000040F2782123
:100E0000C2F20000C2F2000100780A6810440860D3
:100E10007047000080B543F60040C4F2020001684C
:100E200041F400710160016841F480610160016872
:100E300041F480710160032000F088F80F2000F079
:100E400005F800F027F8002080BD000070B540F2E2
:100E50000006C2F2000640F208013278C2F2000138
:100E60004FF47A730968B3FBF2F20446B1FBF2F176
:100E7000084601F04DF80F2C4FF0010508D838B99D
:100E80004FF0FF3021460022002500F033F8746057
:100E9000284670BD82B0002043F640010190C4F2A4
:100EA00002014A6842F480424A604A6802F4804281
:100EB0000192019A0090086840F08050086008682C
:100EC00000F080500090009802B07047002848BFA2
:100ED0007047C1B200F01F00012202FA00F04EF28A
:100EE0000012CEF2000242EAD10121F003010860B3
:100EF0007047000010B54EF60C5CCEF2000CDCF82A
:100F00000030C3F3022E8EF00704042C28BF042403
:100F1000BEF103034FF0FF3E0EFA04F438BF002386
:100F2000A14399400EFA03F39A43114300F00F02D4
:100F300000F160430901043A03F564436244002868
:100F400048BF02F10C03197010BD00004EF60C51A1
:100F5000CEF200010A684FF6FF031A4060F30A223E
:100F600042F0806040F0FD70086070472DE9F0416C
:100F7000002800F08B8043F60808C4F202080446FB
:100F8000D8F8F8030D4600F00700884207D288F829
:100F9000F853D8F8F80300F00700A84276D120688B
:100FA000810717D5410705D5D8F8001041F4E05165
:100FB000C8F80010010705D5D8F8001041F46041C9
:100FC000C8F80010D8F80010A26821F0F001114311
:100FD000C8F80010C0073FD1D8F8F80300F00700A8
:100FE000A84207D988F8F853D8F8F80300F00700AA
:100FF000A8424BD12068410707D5D8F80010E26815
:1010000021F4E0511143C8F80010000708D5D8F8C2
:101010000000216920F4604040EAC100C8F80000E7
:1010200000F054F8D8F8001044F2F842C1F303116C
:10103000C0F60002515C40F2080220FA01F140F2D1
:101040000400C2F200000068C2F200021160FFF763
:10105000FDFE0020BDE8F0816068811E022907D2F4
:1010600058F8081C89015CBF0120BDE8F08111E03F
:10107000012807D158F8081C89035CBF0120BDE88E
:10108000F08107E058F8081C890703D40120BDE867
:10109000F08100BFD8F8001021F003010843C8F820
:1010A0000000FFF7A3FE064641F28837D8F800009B
:1010B000616800F00C00B0EB810F8DD0FFF796FE59
:1010C000801BB842F2D90320BDE8F08110B543F689
:1010D0000404C4F20204606800F00C0008280BD07D
:1010E000042819BF42F20040C0F2F40041F600307B
:1010F000C0F2B70010BD00BF206821682368490214
:1011000041F60031C0F2B70100F03F02C3F388108E
:101110005CBF42F20041C0F2F401A1FB00010023D8
:10112000FFF7A4F821680222C1F3014102EB41015B
:10113000B0FBF1F010BD00002DE9F04182B00028B5
:1011400068D00446007843F60006C007C4F20206E1
:101150000BD0B06800F00C00042840F09F8030688D
:10116000800302D56068002854D0207880071AD503
:10117000B06810F00C0F09D0B06800F00C0008281F
:1011800040F0A6807068400200F1A28030688007BD
:1011900002D5E06801283DD13068216920F0F800CF
:1011A00040EAC10030602078000737D4207840073B
:1011B0004CD4A56955B3B06800F00C00082840F085
:1011C000BB80012D26D07068E16900F480028A425C
:1011D00020D1216A00F03F028A421BD147F6C0713C
:1011E000626A0140B1EB821F14D1A16A4FF6FF730E
:1011F000C903994300F44032A1F580318A4209D1F4
:10120000E16A00F07060B0EB016F03D1002002B022
:10121000BDE8F081012002B0BDE8F08160690028DE
:1012200040F20000C4F2472076D00121C0F8801EB1
:10123000FFF7DCFD054600BF706F8007B6D4FFF7EF
:10124000D5FD401B0228F7D9DDE000BF306C10F05F
:1012500080580AD100200190306C40F080503064FA
:10126000306C00F080500190019847F20007C4F202
:1012700000073868C00541D4386840F48070386091
:10128000FFF7B4FD054600BF3868C00536D4FFF748
:10129000ADFD401B0228F7D9B5E000BFB06800F0F3
:1012A0000C00082803D1706840023FF558AF606811
:1012B000B0F5803F07D0B0F5A02F40F08D803068AA
:1012C00040F480203060306840F4803030608DE041
:1012D000E068002852D00020C4F2472001210160BC
:1012E000FFF784FD054600BF306880073FF554AF27
:1012F000FFF77CFD401B0228F6D984E0A068012896
:1013000005D005284ED1306F40F004003067306FB3
:1013100040F0010030674FE00021C0F8801EFFF769
:1013200065FD0546706F80077FF540AFFFF75EFDF6
:10133000401B0228F6D966E00027C4F247270020A8
:101340003866FFF753FD022D05460BD1306880014A
:101350005ED5FFF74BFD401B02284FF00300F5D987
:1013600055E700BF306880017FF550AFFFF73EFDC5
:10137000401B02284FF00300F4D948E70020C4F2D4
:10138000472000210160FFF731FD054630688007E6
:101390007FF509AFFFF72AFD401B02284FF003003D
:1013A000F4D934E7316F002821F001013167316F42
:1013B00021F0040131674DD0FFF718FD054641F2D9
:1013C000883700BF306F800756D4FFF70FFD401BF2
:1013D000B842F7D917E000BF3168002821F4803106
:1013E0003160316821F4802131604FD0FFF7FEFC7D
:1013F000054600BF306880033FF5B7AEFFF7F6FC47
:10140000401B6428F6D9032002B0BDE8F08100BF7C
:1014100004F11C052FCD084340EA8210D9034FF692
:10142000FF729143A1F5803140EA05600843706086
:1014300001203866FFF7DAFC044600BF30688001FF
:101440003FF5E4AEFFF7D2FC001B02284FF003008B
:10145000F4D9DCE6FFF7CAFC054641F2883700BF45
:10146000306F800708D5FFF7C1FC401BB8424FF032
:101470000300F5D9CBE600BFB8F1000F7FF499AEB9
:10148000306C20F08050306493E600BFFFF7AEFC74
:10149000054600BF306880037FF567AEFFF7A6FC06
:1014A000401B64284FF00300F4D9B0E670470000F9
:1014B000B0B582B0044600684168826812F040030B
:1014C00005D112F0010518BF11F0400512D19507A2
:1014D00008D511F0800505D0616C204602B0BDE84A
:1014E000B040084712F4B07F18BF11F0200507D1B3
:1014F00002B0B0BD216C204602B0BDE8B040084744
:10150000BBB194F85130032B08D100210191C1687F
:10151000019180680190019802B0B0BD636D43F005
:101520000403636500230193C368019383680193F7
:10153000019B12F0200302F4807203D18AB9626D1C
:10154000DAB9D5E7636D43F00103636500230193C6
:1015500083680193036823F040030360019B002A22
:10156000EDD0626D42F0080262650022019282684D
:101570000192019A626D002ABAD04268890722F06E
:10158000E00242604FF0010284F8512020D041680F
:1015900042F2795521F003014160E06CC0F600058C
:1015A00038B10565FFF736FB18B1606D40F04000BB
:1015B0006065A06C00289BD00565FFF72BFB002819
:1015C0003FF496AF606D40F04000606502B0B0BD82
:1015D000204602B0BDE8B040FFF768BF70B538B133
:1015E0000446406A30B10020206104F1140007E095
:1015F000012070BD6068B0F5827F03D004F11C004B
:10160000002101600026A66294F8510020B920460E
:1016100084F8506000F03CF8022084F8510094E80F
:101620000F0001F48271056802F4044225F04005C0
:101630000560114403F400622369114403F00202BF
:101640006369114403F00102A369E569114403F4DD
:101650000072114405F03802256A114405F0800239
:10166000A56A114305F4005211430160626A042126
:1016700001EA134102F0100211444160C16921F4F2
:101680000061C1610120666584F85100304670BD7B
:101690002DE9F04385B0006843F20005C4F201056E
:1016A000A84203D005B0BDE8F08300BF002643F692
:1016B00030000096C4F2020041696C4641F480514A
:1016C000416141694FF0020801F480510091009995
:1016D000009601684FF0030941F0020101600168C2
:1016E000052701F00201009100990096016841F080
:1016F000010101600068214600F00100009000989F
:101700001820009005F55440CDE90186CDF80C90E5
:101710000497FFF791FA8020CDE9000805F55040C5
:101720002146CDE902690497FFF786FA23200021BC
:101730000022FFF7DFFB2320FFF7C8FB05B0BDE861
:10174000F08300002DE9F04182B0044690F851008A
:10175000012819D160681D4617460E46B0F5827FF4
:1017600001D1A068A0B1FFF741FB8046002E4FF0E9
:10177000010018BF002F03D102B0BDE8F08100BF07
:1017800094F85000012811D1022002B0BDE8F08188
:10179000042084F851002046314632463B460095ED
:1017A00000F00EFA02B0BDE8F08100BF012084F81D
:1017B00050000420002184F851006165A663A787CA
:1017C000E7872163A186E186A2682068B2F5004F11
:1017D0002164616438D00168490640D5E168E08F32
:1017E000002944D000287BD0681C0CD11BE000BF2E
:1017F000C068A16B21F8020BA163E08F0138E0877C
:10180000E08F00286CD020688168C907F0D1FFF70D
:10181000EDFAA0EB0800A842F2D342E0FFF7E6FAA7
:10182000E08F00285CD020688168C907F6D0C068C6
:10183000A16B21F8020BA163E08F0138E087E08FF4
:101840000028F0D14CE000BF016821F040010160A8
:10185000016821F48041016001684906BED4016835
:1018600041F040010160E168E08F0029BAD1B8B3CE
:10187000681C0CD124E000BF007BA16B0870A06B3A
:101880000130A063E08F0138E087E08F40B320682B
:101890008168C907F0D1FFF7A9FAA0EB0800A842B8
:1018A000F3D3012084F85100002084F85000032075
:1018B00002B0BDE8F08100BFFFF798FAE08F78B181
:1018C00020688168C907F7D0007BA16B0870A06B06
:1018D0000130A063E08F0138E087E08F0028EFD16E
:1018E0006068B0F5827F0ED1A068B0F5004F02D0DD
:1018F000B0F5806F0AD12168B0F5806F0A6822F0D8
:1019000040020A6002D12046012101E020468021E8
:1019100000222B46CDF8008000F034FE28B1606D27
:1019200040F02000606520206065012084F85100AF
:10193000002084F85000606D002818BF012002B01C
:10194000BDE8F0812DE9F04184B01D4616460F46F2
:101950000446FFF74BFA94F8511001290ED1804646
:10196000002F4FF0010018BF002E03D104B0BDE8D6
:10197000F08100BF94F85000012803D1022004B088
:10198000BDE8F081012084F850000320002184F894
:10199000510061652763A686E686A163A187E1877A
:1019A000A0682164B0F5004F2068616407D1016828
:1019B00021F040010160016841F48041016001684B
:1019C000490603D4016841F0400101606168731E5B
:1019D000E268B1FA81F1B3FA83F349095B09B2F520
:1019E000006F41EA030139D131B137F8021BC16000
:1019F0002763E08E0138E086E08E002870D0681CF6
:101A00000BD11AE0216B31F8022BC2602163E08E0A
:101A10000138E086E08E002862D02068816889075E
:101A2000F0D4FFF7E3F9A0EB0800A842F2D338E0C6
:101A3000FFF7DCF9E08E002852D020688168890722
:101A4000F6D5216B31F8022BC2602163E08E01389C
:101A5000E086E08E0028F0D142E000BF39B139784D
:101A60000173206B01302063E08E0138E086E08E48
:101A7000B0B3681C0BD123E0216B09780173206B94
:101A800001302063E08E0138E086E08E40B32068AC
:101A900081688907F0D4FFF7A9F9A0EB0800A842F4
:101AA000F3D3012084F85100002084F85000032073
:101AB00004B0BDE8F08100BFFFF798F9E08E78B17F
:101AC000206881688907F7D5216B09780173206B3D
:101AD00001302063E08E0138E086E08E0028EFD1EF
:101AE0002046022101222B46CDF8008000F04AFD5D
:101AF000E0B1606D40F02000606520206065A06866
:101B000038B9002002902068C16802918068029074
:101B10000298012084F85100002084F85000606D84
:101B2000002818BF012004B0BDE8F08140F2080091
:101B3000C2F20000006849F68171C1F25E61A0FB4B
:101B40000101480D4FF47A71484303906068B0F585
:101B5000827F0BD12046802100222B46CDF80080C9
:101B600000F010FD0028C4D1C9E700BF0398002889
:101B7000C5D0039801380390206880680006BED560
:101B800003980028BBD00398013803902068806830
:101B90000006B4D503980028B1D00398013803900B
:101BA000206880680006AAD503980028A7D003986B
:101BB00001380390206880680006D7D49FE70000B2
:101BC0002DE9F04383B01E4615460F460446FFF745
:101BD0000DF994F851108146012909D1002F4FF0D9
:101BE000010018BF002D0FD103B0BDE8F08300BF86
:101BF0006068B0F5827F0DD1A06800284FF0020028
:101C000008BF0429F0D1E9E7002EEDD094F8500088
:101C1000012803D1022003B0BDE8F083012084F83D
:101C2000500094F85100002104281CBF052084F8BE
:101C300051006165A563E687A6872763E68620686D
:101C4000A686216461640168490603D4016841F0F5
:101C5000400101606168731EE268B1FA81F1B3FA74
:101C600083F3DDF8288049095B09B2F5006F41EA8A
:101C7000030165D131B137F8021BC1602763E08EE3
:101C80000138E086012518F1010032D102E000BFE1
:101C9000FFF7ACF8E08E18B9E08F002800F0B880AC
:101CA0002068816889070CD5E18E51B1012D08D1DA
:101CB000216B002531F8022BC2602163E18E0139CE
:101CC000E1868168C907E3D0E18F0029E0D0C068D0
:101CD000A16B012521F8020BA163E08F0138E08799
:101CE000D6E700BFFFF782F8A0EB0900404580F07F
:101CF000A580E08E18B9E08F002800F08980206868
:101D0000816889070CD5E18E51B1012D08D1216B75
:101D1000002531F8022BC2602163E18E0139E18692
:101D20008168C907DED0E18F0029DBD0C068A16BD4
:101D3000012521F8020BA163E08F0138E087D1E78C
:101D400039B139780173206B01302063E08E01389E
:101D5000E086012518F1010032D101E0FFF746F8D5
:101D6000E08E10B9E08F002852D020688168890782
:101D70000ED5E18E61B1012D0AD1216B00250978C4
:101D80000173216B206801312163E18E0139E18605
:101D90008168C907E2D0E18F0029DFD0C068A16B5C
:101DA00001250870A06B0130A063E08F0138E08747
:101DB000D4E700BFFFF71AF8A0EB090040453DD279
:101DC000E08E08B9E08F18B32068816889070ED5C6
:101DD000E18E61B1012D0AD1216B002509780173D3
:101DE000216B206801312163E18E0139E186816830
:101DF000C907DFD0E18F0029DCD0C068A16B0125C5
:101E00000870A06B0130A063E08F0138E087D1E754
:101E10002046022101224346CDF8009000F0B2FB9B
:101E2000B0B1606D40F0200060652020606500204A
:101E300084F85000012003B0BDE8F083012084F84D
:101E40005100002084F85000032003B0BDE8F08367
:101E500040F20800C2F20000006849F68171C1F248
:101E60005E61A0FB0101480D4FF47A714843029076
:101E70006068B0F5827F21D1204680210022434650
:101E8000CDF8009000F07EFB0028CAD1A06838B9D8
:101E9000002001902068C16801918068019001983C
:101EA000012084F85100002084F85000606D002863
:101EB00018BF012003B0BDE8F08300BF02980028DE
:101EC000E4D0029801380290206880680006DDD5D1
:101ED00002980028DAD002980138029020688068C1
:101EE0000006D3D502980028D0D00298013802907D
:101EF000206880680006C9D502980028C6D00298DC
:101F000001380290206880680006D7D4BEE7000040
:101F1000411E0020B0EB116F1CBF012070474EF234
:101F20001002CEF2000251604EF62351CEF20001B3
:101F3000F0230B700721906011607047704700001C
:101F40007047000010B590F83C20012A4FF00202C3
:101F500051D080F83D200268D2F804E0D2F808C0E1
:101F60000C682EF07003234341F2FF74C4F20004A6
:101F7000A24253600EDC40F2FF73C4F200039A42A7
:101F800016DCB2F1804F2BD040F20043C4F20003C4
:101F900024E000BF40F2FF33C4F201039A4213DC95
:101FA00041F60003C4F200039A4219D0002313E063
:101FB00040F60003C4F200039A4211D040F60043F9
:101FC000C4F200030AE000BF44F20003C4F20103BC
:101FD0009A4205D040F20043C4F201039A4204D170
:101FE00049682CF08003194391600121002280F898
:101FF0003D1080F83C20104610BD0000002804BFB2
:102000000120704710B5044690F83D0028B9002023
:1020100084F83C00204600F01FF8022084F83D00C0
:102020002068211D00F0A6FB012084F8460084F8FA
:102030003E0084F83F0084F8400084F8410084F8B2
:10204000420084F8430084F8440084F8450084F892
:102050003D00002010BD000080B582B0006841F254
:102060000001C4F2000188421CBF02B080BD002004
:10207000019043F64000C4F202000168002241F0E2
:10208000100101600068002100F01000019001982B
:102090003620FEF72FFF362002B0BDE88040FEF765
:1020A00015BF000090F83D1001291CBF01207047AA
:1020B000022180F83D10006841F2FF72C168C4F24D
:1020C0000002904241F00101C1600DDC40F2FF715D
:1020D000C4F20001884215DCB0F1804F2AD040F2F2
:1020E0000041C4F2000123E040F2FF31C4F20101DB
:1020F000884213DC41F60001C4F20001884219D085
:10210000002113E040F60001C4F20001884211D022
:1021100040F60041C4F200010AE000BF44F20001B1
:10212000C4F20101884205D040F20041C4F201012D
:10213000884206D1816801F00701062904BF00200A
:102140007047016841F00101016000207047000004
:102150007047000070B504460068C5680669B1079D
:1021600016D515F0020113D06FF0020101610121B3
:1021700021778069800703D02046FFF7E9FF05E05B
:10218000204600F08FF8204600F08EF800202077DF
:10219000700719D515F0040016D020686FF00401FF
:1021A000016102212177806910F4407F04D020462C
:1021B000FFF7CEFF06E000BF204600F073F8204690
:1021C00000F072F800202077300717D515F00800CE
:1021D00014D020686FF00801016104212177C069E3
:1021E000800703D02046FFF7B3FF05E0204600F04C
:1021F00059F8204600F058F800202077F00619D54D
:1022000015F0100016D020686FF010010161082150
:102210002177C06910F4407F04D02046FFF798FF73
:1022200006E000BF204600F03DF8204600F03CF8F4
:1022300000202077F00718BF15F0010002D130060A
:1022400009D412E020686FF001010161204600F01E
:102250002DF8300609D515F0800006D020686FF003
:10226000800101612046FFF769FE700609D515F06F
:10227000400006D020686FF040010161204600F068
:102280008DF8B00658BF70BD15F0200008D0216849
:102290006FF0200220460A61BDE87040FFF750BE93
:1022A00070BD0000704700007047000070B582B03C
:1022B00040F26011C2F2000100680968884201D052
:1022C00002B070BD40F20C04C2F20004204600F0DF
:1022D00089FC204600F012FB204600F081FB40F212
:1022E000C805C2F20005686840F2A814B0F57A7F0C
:1022F000C2F2000426DA606805F1100202EB400029
:102300004FF60B7120F8021C40F2E00040F24C0145
:10231000C2F20000C2F200012B46FEF7D1F82046BF
:1023200000F042FD94ED0E0AA868BDEEC01A11EE51
:10233000101A884285ED021AE86005D168680130FC
:10234000686001E094ED0E0A204600F0CFFD40F2F7
:102350007C25C2F2000595ED0E0A0646284600F0DF
:10236000C5FD61686A4673BA6E6802EB410121F8E7
:10237000023C02EB460140BA21F8020C40F2E000B8
:1023800040F24C0140F2C803C2F20000C2F2000168
:10239000C2F20003FEF794F802B070BD704700006F
:1023A000FEE7000080B540F2E00046F20041C2F2D4
:1023B0000000C4F200010322002380E80E0000F1B7
:1023C0000C014FF4102C4FF4001E81E8085083617B
:1023D0008383FEF705FB002808BF80BDBDE8804071
:1023E000FEF752B82DE9F04786B0002443F63000DE
:1023F00005940094C4F20200016840F2000841F024
:10240000020101600168C4F2020801F002010091BA
:1024100000990094016808F5E05641F0010101605F
:102420000168002201F00101009100990094016807
:102430004FF4806A41F008010160016801F0080171
:10244000009100990094016841F0800101600068EA
:102450004FF4806100F08000009000983046FEF755
:10246000BFFC4046102100224FF01009FEF7B8FCD7
:1024700008F580652846012100220127FEF7B0FCFF
:10248000CDE901A70DF1040A30465146CDE90344D8
:10249000FEF7D2FB40465146CDE90197CDE9034412
:1024A000FEF7CAFB28465146CDE90177CDE9034442
:1024B000FEF7C2FB06B0BDE8F0870000B0B540F201
:1024C000081043F20001C2F20000C4F201014FF40F
:1024D0008272002380E80E0000F10C014FF0020C24
:1024E0004FF0010E4FF40074382581E808500A219E
:1024F000C0E90645C0E90833C0E90A31FFF76EF8C4
:10250000002808BFB0BDBDE8B040FDF7BDBF00006A
:1025100080B582B040F2601041F200020021C2F2A8
:102520000000C4F20002532340F2E73CCDE9001161
:10253000C0E90023C0E9021C8161FFF75FFD0028AC
:1025400018BFFDF7A1FF40F26010C2F2000069461B
:10255000FFF7F8FC002818BFFDF796FF02B080BD1A
:10256000FEE70000FEE700007047000040F20810A0
:10257000C2F20000FEF79CBF806B0021C187C186BC
:10258000FEF794BF2DE9F04381B0089C98461546AC
:102590000E468146FEF72AFC201A00EB0804FEF7DF
:1025A00025FC40F20801C2F200010968C1F3CB31F9
:1025B00061430091D9F800108A683240921BB2FA48
:1025C00082F25209AA423DD0074618F1010031D0EB
:1025D000FEF70CFCC01BA04238D2009800990028DE
:1025E000A1F101010091D9F80010896808BF0446E3
:1025F00001EA0600801BB0FA80F04009A842E7D14A
:1026000020E000BF88683040801BB0FA80F04009AD
:10261000A84217D088683040801BB0FA80F040098B
:10262000A8420FD088683040801BB0FA80F0400983
:10263000A84207D088683040801BB0FA80F040097B
:10264000A842DFD1002001B0BDE8F083D9E9000144
:102650004268B1F5827F22F0E00242600BD1D9F8E6
:102660000810B1F5004F02D0B1F5806F03D10168B9
:1026700021F040010160D9F82810B1F5005F07D1C1
:10268000016821F400510160016841F400510160CA
:10269000012089F85100002089F85000032001B082
:1026A000BDE8F08370470000FEF7A6BBB0B592B05E
:1026B000002443F64000CDE90A44CDE908440594DE
:1026C000CDE90344CDE901440094C4F2020001685D
:1026D000022541F080510160006800F080500090B8
:1026E000009847F200000094C4F20000016841F431
:1026F00080410160006800F4804000900098012053
:1027000006904FF4803007904FF480000D90062023
:102710000E90A820CDE90F050420119006A80C9575
:10272000FEF70AFD10B172B6FEE700BF0F20CDE93B
:1027300001054FF4A05004904FF48050059001A87B
:1027400005210394FEF712FC10B172B6FEE700BF3C
:1027500012B0B0BD4EF68850CEF20000016841F4D0
:10276000700101607047000040F26010C2F200008A
:10277000FFF7F0BC10B540F6FF3E0368C4F2000E50
:1027800040F2004C7045C4F2010C27DCB0F1804FE0
:1027900031D040F20042C4F2000290422BD040F609
:1027A0000002C4F20002904225D041F6FF72C4F24A
:1027B0000002904229DC70453CDCB0F1804F5FD0D4
:1027C00040F20042C4F20002904259D040F60002AA
:1027D000C4F20002904253D056E000BF40F60042DF
:1027E000C4F20002904206D0604504D00022C4F238
:1027F00001029042D9D14A6823F07003134341F695
:10280000FF72C4F200029042D5DD43F6FF72C4F2BB
:102810000102904222DC42F20002C4F20002904225
:102820002ED00022C4F20102904229D0604527D068
:102830002AE000BF40F60042C4F2000290421FD0DE
:1028400041F60002C4F20002904219D041F6004263
:10285000C4F20002904213D016E000BF44F200021E
:10286000C4F2010290420BD044F60002C4F201020D
:10287000904205D044F20042C4F20102904203D1DA
:10288000CA6823F44073134323F080024B69D1F8E4
:1028900000E08C681A430260C46240F48062C0F8B1
:1028A00028E0624504BF09690163012141610169B2
:1028B000C90708BF10BD016921F00101016110BD08
:1028C000FEE7000080B52DED028B40F2A810B7EEB8
:1028D000008AC2F200000121B0EE480A00F018FBA5
:1028E00040F27C20C2F200000321B0EE480ABDECA9
:1028F000028BBDE8804000F00BBB000070B582B0D9
:1029000040F2004504468220C4F202058DF807001B
:10291000284601210022FEF763FA40F20816C2F2AF
:1029200000060DF10701304601224FF47A73FFF7DC
:1029300009F8E11D304606224FF47A73FEF702FFD4
:10294000284601210122FEF74BFAE06A94F807C0FD
:1029500094F808E0627AA37A267BE57A01380328A6
:1029600006D81AA101EB800090ED000A02E000BF3A
:102970009FED150A45EA062042EA03214CEA0E22A1
:1029800000B209B212B201EE102A02EE101A03EEE2
:10299000100AB8EEC11AB8EEC22AB8EEC33A20EE59
:1029A000011A20EE022A20EE030ABDEEC11ABDEE86
:1029B000C22ABDEEC00A84ED071A84ED082A84ED10
:1029C000090A02B070BD00BF23DB793D23DBF93C6F
:1029D000DAAC7A3C6C09F93B6C09793B00000000E9
:1029E000F0B581B02DED0E8BD0E90567044696FB5E
:1029F000F7F001F0C3F941EC100B00F005FB9FED7F
:102A0000741B51EC100B53EC112B01F05DF800F02E
:102A100081FF216909EE100A084601F0AFF9054669
:102A200006FB06F007FB07000E4601F0A7F941EC94
:102A3000100B00F0C5FD53EC102B2846314601F079
:102A400043F841EC100B00F0DFFA51EC100B9FED56
:102A5000620B53EC102B01F037F800F05BFF94EDA4
:102A6000071A94ED0C0A0AEE100AB8EEC1BA00F08B
:102A7000DFFC94ED0D1AB0EE408AB0EE410A00F092
:102A8000D7FC94ED0C1A28EE008AB0EE410A00F053
:102A900027FC88EE001A94ED082A94ED0C0AB8EE93
:102AA000C22A21EE021A31EE0BBA00F0C1FC94EDFD
:102AB0000D1AB0EE408AB0EE410A00F011FC94ED20
:102AC0000C1A28EE008AB0EE410A00F009FC88EEEC
:102AD000001A94ED092A94ED0D0AB8EEC22A21EEEF
:102AE000021A31EE0BBA00F0FBFBB0EE408A94ED17
:102AF000081A94ED0D0AB8EEC1CA00F099FC94EDE5
:102B0000092A94ED0D1AB8EEC22A20EE020A28EE28
:102B10000C2A32EE40CAB0EE410A00F089FC94ED76
:102B20000C1AB0EE408AB0EE410A00F0D9FB88EEF4
:102B300000DA94ED081A94ED0D0AB8EEC1EA00F03F
:102B4000CFFB94ED0C1AB0EE408AB0EE410A00F0D3
:102B5000C7FB88EE000A94ED091A9FED216AB8EED2
:102B6000C11A94ED0D3A94ED0C2A94ED0F5A94EDA0
:102B70000E4A20EE010A2DEE0E1A31EE000A2BEE5F
:102B8000061A31EE031A2CEE063A32EE032AB7EE9D
:102B9000003A20EE060A33EE453A30EE040A21EE02
:102BA000031A25EE094A22EE032A25EE0A3A34EEEC
:102BB000011A33EE022A84ED0C2A84ED0D1A84EDFD
:102BC0000E0ABDEC0E8B01B0F0BD00BF00BF00BF10
:102BD000000000A046DF913F000000A046DF91BF4B
:102BE0006F12833A70B582B0002504469220C4F279
:102BF00002058DF80700284610210022FEF7F0F8A4
:102C000040F20816C2F200060DF10701304601221B
:102C10004FF47A73FEF796FE3046214607224FF4B2
:102C20007A73FEF78FFD284610210122FEF7D8F8AF
:102C3000A06A94F801C094F802E0E2782379A679BA
:102C400065790138022805D819A101EB800090EDC3
:102C5000000A01E09FED150A45EA062042EA032139
:102C60004CEA0E2200B209B212B201EE102A02EEB4
:102C7000101A03EE100AB8EEC11AB8EEC22AB8EE66
:102C8000C33A20EE011A20EE022A20EE030ABDEE1E
:102C9000C11ABDEEC22ABDEEC00A84ED041A84ED4D
:102CA000052A84ED060A02B070BD00BF0A356B3AF2
:102CB0000A35EB3A0A356B3B0A35EB3B90ED072AB8
:102CC00090ED033A30EE600A90ED061A30EE024ABB
:102CD000B4EE434AB0EE432AB1EE435A80ED060A01
:102CE00080ED074A80ED081AF1EE10FAB8BFB0EE99
:102CF000442AB4EE452AF1EE10FAB8BFB0EE452AE8
:102D000008DBB4EE434AF1EE10FAA8BF80ED072AC3
:102D100002E000BF80ED072A90ED003A90ED014AF5
:102D200090ED025A22EE042A20EE033A30EE410AD8
:102D300090ED046A20EE050A32EE031A80ED093A9E
:102D400031EE003A80ED0A2AB4EE463AB0EE431A6C
:102D5000B1EE462A80ED0B0AF1EE10FAC8BFB0EED4
:102D6000461AB4EE421AF1EE10FAB0EE410AB4EE91
:102D7000463AB8BFB0EE420AF1EE10FA80ED053ADD
:102D800008DCB4EE421AF1EE10FAB8BF80ED050A85
:102D9000704700BF80ED050A7047000080EC050A0F
:102DA000704700000000000070B52DED028B044656
:102DB00000F10C0200F1280340F2E000C2F2000032
:102DC0000021FDF743FC94ED0E0A9FED451A9FED9F
:102DD000453A31EE402A0020B4EE432AC4F2B43022
:102DE000F1EE10FA84ED0F0AA06327DD12EE100A4F
:102DF00001F0A0FA9FED380B53EC102B00F0BCFD56
:102E000094ED028A054618EE100A0E4601F092FA79
:102E100002460B462846314600F056FE0546206C19
:102E20000E4601F087FA02460B462846314600F06E
:102E3000A3FD00F06FFD20643AE000BF9FED2A3A49
:102E4000B4EE432AF1EE10FA26DA12EE100A01F07F
:102E500071FA9FED1F0B53EC102B00F08DFD94EDDC
:102E6000028A054618EE100A0E4601F063FA024681
:102E70000B462846314600F027FE0546206C0E46DC
:102E800001F058FA02460B462846314600F074FD20
:102E900000F040FD20640BE094ED028A94ED102ACE
:102EA00080EE080A31EE400A32EE000A84ED100A84
:102EB000608D40BA00EE100AB8EEC00A80EE080A33
:102EC00084ED110ABDEC028B70BD00BF00BF00BFD6
:102ED000000000000080764000000000008076C006
:102EE0000000B44300003443000034C310B5D0EDFB
:102EF0000E0A0446A030FFF7E1FED4ED110A04F1FA
:102F00007000FFF7DBFEBDEEC00A10EE100A10BD28
:102F1000B0B504464068002500F50170C4E903051A
:102F200004F1480090EC050A082104F17000C4E99E
:102F30000555C4E907156562FFF730FF04F15C0031
:102F400090EC050A04F1A000FFF728FF2046257049
:102F5000B0BD00008AB0FDF75DFFFFF7A7FBFFF7EC
:102F600041FAFFF71FFAFFF7D3FAFFF7A7FA40F28B
:102F70006010C2F20000FFF795F86C462046282149
:102F8000FDF7ECF90E2040F2E00505900120C2F2B9
:102F90000005CDE9070028462146FDF7E5FA284659
:102FA000FDF7FCFD28460221FDF772FAFEE703B4A7
:102FB00001984100009850EAC12018BF04204A0D32
:102FC00018BF40F0010040F2FF72B2EB515F08BF42
:102FD00040F00200012808BF052002B07047410000
:102FE000080218BF04200A0E18BF40F001004FF07D
:102FF0007F4232EA010108BF40F00200012808BF09
:10300000052070470000000070B59B482DED020BB5
:103010002DED068B079D25F00044A04218DC974853
:10302000844202DC0AD1069840B19DED060BBDEC4E
:10303000068B02B0BDE8704000F07BBB002DCCBF1A
:103040009FED8F0B9FED900BBDEC068B02B070BD1A
:103050008F48A04215DD8F48A042D8BF4FF0FF3403
:1030600058DD9DED060B51EC100BFFF7A0FF042877
:1030700008BF00F069FB9DED060BBDEC068B02B0AE
:1030800070BD9DED060B51EC100B00F02BFCCDE953
:10309000060181489FED828BA0423CDD8248A04220
:1030A0001FDD00249FED82AB9DED060B53EC1A2B28
:1030B00051EC100B00F060FC9DED060B41EC190B80
:1030C00053EC1A2B51EC100B00F070FE53EC182B44
:1030D00001F042F853EC192B00F0F6FCCDE90601A3
:1030E00049E09DED060B012453EC182B51EC100B1D
:1030F00000F042FC9DED060B41EC190B53EC182B34
:1031000051EC100B01F028F853EC192B00F0DCFC0B
:10311000CDE906012FE06848A0421FDD02249FEDA3
:10312000689B9DED060B53EC192B51EC100B00F036
:103130003DFE53EC182B00F01FFC9DED060B41ECFF
:10314000180B53EC192B51EC100B01F005F853EC54
:10315000182B00F0B9FCCDE906010CE09DED060B43
:10316000032453EC102B9FED580B51EC100B00F087
:10317000ABFCCDE906019DED060B53EC102B51EC99
:10318000100B00F013FE41EC180B53EC182B00F061
:103190000DFE41EC190B4E480621B0EE490AF0EE47
:1031A000690A784400F049FA53EC182B51EC100BE3
:1031B00000F0FCFD41EC180B4648B0EE490AF0EE79
:1031C000690A0521784400F038FA53EC192B51ECC8
:1031D000100B00F0EBFD41EC100B51EC180B53EC15
:1031E000102B002C0EDA00F0C7FB9DED061B53ECF4
:1031F000112B00F0DBFD9DED061B53EC112B00F0B5
:10320000D3FE35E000F0B8FB9DED061B53EC112B0F
:1032100000F0CCFD41EC100B2F48784400EBC400CB
:1032200090ED001B51EC100B53EC112B00F094FFB0
:103230009DED061B53EC112B00F08EFF41EC100BA3
:103240002648784400EBC40090ED001B51EC100BB5
:1032500053EC112B00F0A8FE41EC100B002DA2BF87
:10326000BDEC068B02B070BD51EC100B00F046FBBC
:1032700041EC100B01E70000000010440000F07F5B
:10328000182D4454FB21F93F182D4454FB21F9BF5C
:103290000000DC3F0000203E0000F33F0000000083
:1032A000000000000000F03F0000E63F00000000CA
:1032B000000000000000004000800340000000000B
:1032C000000000000000F83F000000000000F0BF18
:1032D00002130000B812000042120000FA110000B0
:1032E00010EE101A08B5444A6846B2EB410F28D9CF
:1032F0004FF0E640B0EB410F94BF00204FF0FF309D
:1033000000900098002861DB60EE000A10F0010FC9
:1033100045D010F0020FDFED391A9FED391A00EE9B
:10332000A11ADFED381A40EE811A21EEA01AF0EE54
:10333000400A40EE010A08BFF1EE600AB0EE600AF2
:1033400008BD314B21F0004293423CD911F0004FAF
:10335000DFED2E0A20EE201ADFED2D0A19BF31EE27
:10336000601A71EE200A31EE201A71EE600ABDEE8D
:10337000E01A11EE100A9FED271A00F0030000EE8C
:10338000C10A9FED251A009000EEC10A9FED231A95
:1033900000EEC10A9FED221A00EEC10AB1E79FEDCF
:1033A000211A9FED210A10F0020F00EE810A9FED15
:1033B0001F1A00EE801AB7EE000A00EE810A18BF4D
:1033C000B1EE400A08BD00F0E3F99AE710EE100AEA
:1033D0004000B0F17F4F3CBFB7EE000A08BD07D1F7
:1033E0004FF00100FCF7FBFFBDE8084000F0C0B95A
:1033F000BDE8084000F0B8B9B61F927E336D4CB9F5
:10340000DA82083CA0AA2ABE490E494683F9223F27
:103410000000004B0000C93F00A0FD390020A2338E
:103420001A61342CB93AB2BACA9F2A3DDDFFFFBEF9
:1034300000B510EE101A2DED028B81B0524A68468D
:10344000B2EB410F2ED94FF0E640B0EB410F94BFE5
:1034500000204FF0FF3000900098B0EE408A002826
:103460006ADB10F0010F4BD068EE080A9FED471A97
:103470009FED470A00EE810A9FED461A10F0020FF9
:1034800000EE801AB7EE000A00EE810A02BF01B01A
:10349000BDEC028B00BD00BF01B0B1EE400ABDEC37
:1034A000028B00BD3C4B21F00042934241D911F008
:1034B000004FDFED3A0A20EE201ADFED390A19BF7E
:1034C00031EE601A71EE200A31EE201A71EE600AB8
:1034D000BDEEE01A11EE100A9FED321A00F0030063
:1034E00000EEC10A9FED301A009000EEC10A9FED78
:1034F0002F1A00EEC10A9FED2E1A00EEC10AABE7AB
:1035000028EE080A9FED2B1ADFED2B0A10F0020FB0
:1035100040EE010A9FED291A00EE201A61EE000A22
:10352000B0EE480A08EE200AB6D101B0BDEC028B1D
:1035300000BD00F02DF98FE718EE100A4000B0F141
:103540007F4F0DD218EE100AFFF749FD042808BF7F
:1035500000F016F9B0EE480A01B0BDEC028B00BDD8
:1035600009D10120FCF73BFF01B0BDEC028B5DF8F7
:1035700004EB00F0FDB801B0B0EE480ABDEC028BE0
:103580005DF804EB00F0F0B8B61F927EB93AB2BA1B
:10359000CA9F2A3DDDFFFFBE490E494683F9223FFF
:1035A0000000004B0000C93F00A0FD390020A233FD
:1035B0001A61342C336D4CB9DA82083CA0AA2ABEB9
:1035C00000B52DED048BB0EE409AF0EE609A83B01A
:1035D00051EC190B00F0F4FC41EC180B18EE100A3A
:1035E00018EE901A8DED008B002818BF01200843BB
:1035F00020F00040C0F17F6000F1E040C00F14D027
:1036000019EE101A19EE900A8DED009B002918BFD3
:103610000121084320F00040C0F17F6000F1E0404C
:10362000C00F04BF0120FCF7DAFEB0EE480A03B079
:10363000F0EE680ABDEC048B00BD70B504462DEDBC
:10364000028B4D1E00EBC500B0EE408AF0EE608AA2
:1036500090ED000B35F0060017D053EC182B51EC11
:10366000100B00F0A3FB41EC100B6D1E04EBC5002A
:1036700090ED001B51EC100B53EC112B00F07CF97A
:1036800041EC100B35F00600E7D1022D36D0042DA9
:103690001CD0062D1CBFBDEC028B70BD53EC182B4B
:1036A00051EC100B00F082FB94ED0A1B53EC112B34
:1036B00000F062F953EC182B00F078FB94ED081B36
:1036C00053EC112B00F058F941EC100B53EC182B74
:1036D00051EC100B00F06AFB94ED061B53EC112B20
:1036E00000F04AF953EC182B00F060FB94ED040B4A
:1036F00053EC102B00F040F941EC100B53EC182B5D
:1037000051EC100B00F052FB94ED021B53EC112B0B
:1037100000F032F953EC182B00F048FB94ED001B3D
:1037200053EC112B00F028F9BDEC028B41EC100B8F
:1037300070BD10B553EC102B51EC100B00F01CF9C0
:1037400041EC100B10BD00009FED050B10B553ECC4
:10375000102B51EC100B00F029FB41EC100B10BDAD
:10376000000000000000001030EE000A704700006A
:10377000DFED020A80EEA00A7047000000000000A2
:103780009FED020A20EE000A7047000000000010C2
:103790002DE9F0014FF07F42B2EB410F9FBF4FF098
:1037A000FF310160BDE8F00170474FF0004242EA8E
:1037B0000123C1F3C752783A551112F01F0C434C44
:1037C000CCF120067C44C1F3C752A2F178024FEA43
:1037D000621204EB820254F8254008BFD2E9015678
:1037E00012D0556804FA0CF425FA06F73C439768A2
:1037F00005FA0CF527FA06F8D26807FA0CFCF24035
:1038000045EA08054CEA0206A4FB034CA5FB03525B
:10381000A6FB03631D449D4234BF012600261319F5
:10382000334416B1934202D903E0934201D20122FC
:1038300000E00022624402F1200C9206DC0C42EA15
:10384000443200EE102A5B03DFED210AF8EEC01AC5
:1038500000EE103A4FEA9C1C11F0004FB8EE400AFF
:10386000C0F800C020EE201A00EE105ADFED190A51
:10387000B8EE400A20EE200A71EE810A70EE800A4E
:1038800010EE902A02F500626FF30B0200EE902A10
:1038900070EEE11A31EEC11ADFED101A30EE411A66
:1038A0009FED0D0A20EE800A01EE210A9FED0C1A11
:1038B00000EE810A04BFBDE8F0017047CCF18051F1
:1038C0000160BDE8F001B1EE400A7047100D000044
:1038D000000000360000802C22AAFD29DB0FC92F32
:1038E0000000C92F82B0CDE9000121F00040019015
:1038F0009DED000B02B051EC100B704781F00041C0
:10390000704780F00040704721F00041704720F080
:103910000040704721F0004201F00043A2F16052E4
:10392000B2F5801F28BFD2F17F6C0BD95FEA001C73
:1039300043EAC20242EB507018BF704728BF20F024
:1039400001007047B2F5801FBCBF184670474FEAB0
:10395000410C1CF5001F02D2084600F069BD70B58D
:1039600000F0CEFA00000089FFF7F6BF4FF00040EC
:10397000A0F580007047000010B591EA030F48BF22
:1039800083F0004300F1F083841A71EB030C05D23D
:10399000121943EB0C03001B61EB0C014FEA1154AD
:1039A000A4EB135CDFF81CE11EEA430F18BF9EEA8C
:1039B000445F00F0748021EA045123EA0E0343F4CB
:1039C0008013DCF1200E32D322FA0CFE10EB0E0035
:1039D00023FA0CFE41EB0E01CCF1200E03FA0EFE91
:1039E00010EB0E00CCF1200E51F10001B1F5801F5B
:1039F00032D201EB045112FA0EF2BDE8104058BF6A
:103A00007047401C38BF5FEA420218BF7047002869
:103A100014BF20F0010041F100014FEA410313F50A
:103A2000001F38BF7047A1F1C04100F0B7BA012AAA
:103A300043EB0302ACF1200CDCF11F0E32BF4FF060
:103A4000000E23FA0CF310EB030041EB0451B4EB2E
:103A5000115FD0D0A1EB045101F58011490801EBB1
:103A600004515FEA30000ED350F1000038BF12FA63
:103A70000EFE08D1BDE81040C9E7401C38BF5FEA20
:103A80004202CAD1C3E7BDE810404FEA410313F533
:103A9000001F38BF7047A1F1C04100F07FBA9EEA15
:103AA000445F08D011EA5E0FBDE8104004BF01F08A
:103AB000004100207047BDE8104070B500F020FACA
:103AC00064FBBE3E0000E0FF2DE9C04130B4DFF8EA
:103AD000A4C23CEA111418BF3CEA131400F0ED80B4
:103AE0001CEA111481EA030544EAD57418BF1CEAE4
:103AF000131500F0C880A4EB050404F17F7404F5ED
:103B000000344FF0004545EAC12145EAC32341EAAC
:103B1000505143EA52534FEAC0204FEAC222994221
:103B200008BF904200F09D804FEA13650FF24416E3
:103B3000765D4FEA134506FB05F7C7F1807706FB74
:103B400007F74FEAD737A7FB03687642A7FB06CEF5
:103B5000C8F5803838BFA8F1010807FB08E6A6FBC6
:103B6000028C4FF0000EE6FB03CEDCF1000CCEF130
:103B7000004E38BFAEF1010EA6FB0C584FF0000707
:103B8000E6FB0E87A1FB08C6A0FB07CE16EB0E06D0
:103B90004FF0000545F10005E1FB076515F1E04E2A
:103BA0007EBFA4F580345FEA46066D4116F18007BA
:103BB00045F100054FEA172747EA05674FEA152543
:103BC0004FEA0666A6F1DE46B6F1805F20D9384698
:103BD00005EBC47124F0010C01EB0C11BCF1FE6F7C
:103BE00002D8F0BCBDE8008124425CBF01F5801E14
:103BF0009EEAC47F02D4F0BCBDE80081244200F1FB
:103C00003980A1F1C041F0BCBDE8004100F0C6B967
:103C10004FEAD02040EA41504FEAD1214FEAD22268
:103C200042EA43524FEAD323A7FB028607FB03660F
:103C300005FB02661EEA0E0F58BFA6EB0056B6EB58
:103C400000564FEA520E4EEAC37E18EB0E0E56EBAC
:103C5000530EBCD518EB02085E417F1C55F10005E0
:103C6000B5E74FF480154FF000074FF000064FF016
:103C70000008ACE701F1C04101F000414FF0000045
:103C8000F0BCBDE800810CEA131511EA0C1F00D04E
:103C90000CE013EA0C1F00F026804FF0000081EAD0
:103CA000030101F00041F0BCBDE80081F0BCBDE8BB
:103CB000004181EA030100F071B9F0BCBDE80041A8
:103CC00070B500F01DF900BF097EFC3E00F007B89A
:103CD0004FF0000081EA030101F00041704781EAE2
:103CE000030100F05BB9F0BCBDE8004122494FF090
:103CF00000007047FFFDFBF9F7F5F4F2F0EEEDEB95
:103D0000E9E8E6E4E3E1E0DEDDDBDAD8D7D5D4D3D9
:103D1000D1D0CFCDCCCBCAC8C7C6C5C4C2C1C0BF25
:103D2000BEBDBCBBBAB9B8B7B6B5B4B3B2B1B0AF2B
:103D3000AEADACABAAA9A8A8A7A6A5A4A3A3A2A10F
:103D4000A09F9F9E9D9C9C9B9A99999897979695CA
:103D500095949393929191908F8F8E8E8D8C8C8B66
:103D60008B8A8989888887878685858484838382EE
:103D7000828181800000FF070000F87F10F0004280
:103D800048BF4042B0FA80F310FA03F10AD0C3F101
:103D90001D0303F5806302EB03524FEA415002EB2F
:103DA000D12170474FF000007047000070B5DFF878
:103DB00048C11CEA111E1EBF1CEA13159EEA0C0F17
:103DC00095EA0C0F00F06F8081EA03044EEAD47E7E
:103DD000AE4421EA4C1123EA4C1341F4801143F420
:103DE0008013AEF17F7EA1FB024CA0FB0365361968
:103DF00055EB0C05A1FB034C4CF10003A0FB021C8E
:103E000016EB0C06654153F10003094218BF46F05A
:103E1000010613F4007F0BD14FEA03314FEA05305E
:103E200041EA155140EA165034036FF003020AE0EC
:103E30004FEAC3214FEAC52041EA555140EA5650A6
:103E4000F4026FF0020202EB2E4201EB025585EA0A
:103E5000CE710AD05FEA440C18BF24F0004450F140
:103E6000000041F1000120EAD47040F2FE7C62457E
:103E700000D270BDA84214BF4FF080444FF04044C0
:103E8000002E08BF0024BEF1806FA8BFA1F1C04181
:103E9000BDE8704080F2828001F1C04101F0004134
:103EA0004FF0000070470CEA13159EEA0C0F18BF84
:103EB00095EA0C0F06D081EA030E4FF000000EF0D9
:103EC000004170BD00F01CF88900013E00F007B809
:103ED00000F009B84FEA430C5FEA5C5C08D081EA65
:103EE000030100F05BB84FEA410C5FEA5C5CF6D17D
:103EF00002494FF0000070470000FF070000F87F04
:103F00000EF1020E2EF0030E5EF8046B364205D45D
:103F1000012A43EB030515F5001F12D8012841EBD8
:103F2000010C1CF5001F0CD80ED14FEAD17C0CEB14
:103F30004C0C0CF1020C15F5001F08BF4CEBD37CA8
:103F400004E04FF0080C01E04FEAD37C0CEB4C0589
:103F500026FA05F606F00706B6F1040C06D20EEBBB
:103F6000860CBDE870404CF0010C6047DFE80CF0B7
:103F7000090B02024FF00041A1F500214FF00000B3
:103F800070BD19461046012851EB010418BFD4F545
:103F9000001484BF002001F0004170BD0808A0F5A6
:103FA00000114FEA3101704710B591EA030F81F01B
:103FB00000413FF5E9AC83F0004300F0D5B80000C4
:103FC0002DE9F04101F5801CBCF5001FC0F2A9806D
:103FD0004FEA115C21EA0C5141F480110CF1FD0C07
:103FE0005FEA5C0C0CF5C07C01D3400049418902BA
:103FF00041EA905187022EA48E0EA45D0A0C04FBA8
:1040000004F602FB06F6C6F14046A4FB0662F60D76
:1040100046EA422606FB06F4A4FB01235242C3F102
:10402000404338BF5B1EA6FB02420024E6FB03248C
:10403000D20B42EA4446A6FB0623A1FB02E2A3FB05
:1040400007E4E3FB61426442C2F1404E38BFAEF187
:10405000010EA6FB04234FF00002E6FB0E32A2FB8A
:1040600003463400E2FB6264A1FB06E6A4FB07E81A
:10407000E4FB61687642C8F1405838BFA8F10108F6
:10408000A2FB06E4A3FB08E5E2FB6854A1FB05E6FE
:10409000A7FB04E8E1FB648618F1200556F1000651
:1040A000A80940EA8660B109A8F11B0808F03F089A
:1040B000B8F10A0F1CD901EB0C51BDE8F08100BF2B
:1040C000FCF5EEE8E2DDD8D3CFCBC7C3C0BDB9B6AF
:1040D000B4B1AEACA9A7A5A3A19F9D9B9A989695B4
:1040E0009392908F8D8C8B8988878685848382813B
:1040F000A0FB006800FB01F208EB4208B8EB872840
:1041000007D5341858EB0104D5D5401C51F10001F6
:10411000D1E7341A78EB0104CDD4401E71F10001CF
:10412000C9E75FEA4C0C5FEA9C5C0DD105D301F056
:1041300000414FF00000BDE8F081BDE8F04170B5EE
:10414000FFF7DEFE6DDBFFBEBDE8F04101494FF039
:10415000000070470000F87F10B591EA030F48BFD8
:1041600083F000433FF510AC841A71EB030C07D2C7
:104170008CF0004C121943EB0C03001B61EB0C019B
:104180004FEA1154A4EB135CDFF8A4E11EEA430FDD
:1041900018BF9EEA445F00F0B48021EA045123EA8C
:1041A0006E035242C3EB6E0338BF5B1EDCF1200E80
:1041B00025D322FA0CFE10EB0E0043FA0CFE41EB65
:1041C0000E01CCF1200E03FA0EFE10EB0E00CCF126
:1041D000200E51F1000129D401EB045112FA0EF224
:1041E000BDE8104058BF7047401C1CBFB2F1004FE3
:1041F000704700280CBF491C20F00100704712EBEB
:10420000020E43EB030218BF4FF0010E4EEA4202CA
:10421000ACF1200CDCF11E0E56D943FA0CFE10EB6B
:104220000E00CCF11E0E51F1FF31D5D50EF1010E6D
:1042300012FA0EFE404141EB010101EB445C5FEAE2
:104240005C5C10D901EB045110EBDE7038BFBEF19D
:10425000004FBDE8104018BF704700280CBF491C34
:1042600020F00100704734D24FEAD42C24F40064CB
:1042700011F500111BD0B1FA81F20B3AA41AA41E59
:10428000D2F12003914030FA03F31943904001EB3F
:10429000CC7101EB0451002CBDE81040A8BF704761
:1042A00001F1C04101F000414FF000007047B0FA49
:1042B00080F310FA03F102D1BDE810407047E41A10
:1042C000173C4805C90AE2E701EB0451BDE810407C
:1042D000704749104FEA300001EB0451BDE810402F
:1042E00002E04FF0000170474A0008BF0042F8D0DA
:1042F000B2F5001F28BF704701F000414FF00000E9
:1043000070479EEA445F07D011EA5E0FBDE8104097
:1043100004BF002100207047BDE8104070B5FFF7D2
:10432000EFFD00BF40DFF63E104683F000417047CE
:104330000000E0FF43004FEAD30C4FEA3C0C43403F
:104340001FBF40070CF1605113F0FE4F70471CF087
:10435000006F03D10CF00041002070470CF00043C7
:1043600043EA507040EACC0010B500F00EF800BFF0
:10437000000000924FEA0001FFF710BE4FF000412D
:10438000A1F500214FF0000070470EF1020E2EF053
:10439000030E5EF8044B244204D44FEA4102B2F10A
:1043A0007F4F11D84FEA4003B3F17F4F0CD80ED1A5
:1043B0004FEAD07C0CEB4C0C0CF1020CB2F17F4FAD
:1043C00008BF4CEBD17C04E04FF0080C01E04FEA51
:1043D000D17C0CEB4C0324FA03F404F00704B4F191
:1043E000040C06D20EEB840CBDE810404CF0010C1E
:1043F0006047DFE80CF0070802024FF00040A0F52C
:10440000800010BD0846420018BFD2F1807288BFFC
:1044100000F0004010BDF1EE100A4FF6FF71C0F23F
:10442000C03120EA010040F04070E1EE100A704710
:10443000FF2141EAD050C005704700000000000095
:104440004FBB610567ACDD3F182D4454FB21E93FAC
:104450009BF681D20B73EF3F182D4454FB21F93F9B
:10446000E2652F227F2B7A3C075C143326A6813C21
:10447000BDCBF07A8807703C075C143326A6913CCC
:10448000C4EB98999999C9BF711623FEC671BCBF38
:104490006D9A74AFF2B0B3BF9AFDDE522DDEADBFA0
:1044A0002F6C6A2C44B4A2BF0D5555555555D53FB8
:1044B000FF8300922449C23F6E204CC5CD45B73FD3
:1044C000513DD0A0660DB13FEB0D76244B7BA93F4B
:1044D00011DA22E33AAD903F000000006E83F9A2AA
:1044E0002915444ED15727FCC0DD34F5999562DB80
:1044F0004190433CAB6351FE00000000000000000F
:1045000001020304060708093045000800000020E6
:1045100068000000C40100089845000868000020F9
:10452000E8080000E00100089DE3FFFF0000000034
:1045300001000000100000000024F4000000000052
:10454000000000000000000000000000000000006B
:10455000000000000000000000000000000000005B
:104560000000000002000000000000000000000049
:104570000000000000000000A69B443BFF0100007B
:104580000000000000000000000000000800000023
:08459000000000000000000023
:040000050800018965
:00000001FF
