:020000040800F2
:10000000000002205D310008513000085330000824
:100010005530000857300008593000080000000033
:100020000000000000000000000000005B3000083D
:100030005D300008000000005F30000861300008FB
:10004000AD310008AD310008AD310008AD31000818
:10005000AD310008AD310008AD310008AD31000808
:10006000AD310008AD310008AD310008AD310008F8
:10007000AD310008AD310008AD310008AD310008E8
:10008000AD310008AD310008AD310008693000081D
:1000900079300008AD310008AD310008AD310008FD
:1000A000AD310008AD310008AD310008AD310008B8
:1000B000AD310008AD310008AD310008AD310008A8
:1000C000AD310008AD310008AD31000889300008BD
:1000D000AD310008AD310008AD310008AD31000888
:1000E000AD310008AD310008AD310008AD31000878
:1000F000AD310008AD310008AD310008AD31000868
:10010000AD310008AD310008AD310008AD31000857
:10011000AD310008AD31000899300008AD3100085C
:10012000AD310008AD310008AD310008AD31000837
:10013000AD310008AD310008AD310008AD31000827
:10014000AD310008AD310008AD310008AD31000817
:10015000AD310008AD310008AD310008AD31000807
:10016000AD310008AD310008AD310008AD310008F7
:10017000AD310008AD310008AD31000800000000CD
:08018000AD310008AD310008AB
:1001880010B5054C237833B9044B13B10448AFF3C9
:1001980000800123237010BD6401002000000000CE
:1001A800DC67000808B5034B1BB103490348AFF3EC
:1001B800008008BD0000000068010020DC6700081E
:1001C80081F0004102E000BF83F0004330B54FEA00
:1001D80041044FEA430594EA050F08BF90EA020F6D
:1001E8001FBF54EA000C55EA020C7FEA645C7FEA00
:1001F800655C00F0E2804FEA5454D4EB5555B8BF23
:100208006D420CDD2C4480EA020281EA030382EA93
:10021800000083EA010180EA020281EA0303362D25
:1002280088BF30BD11F0004F4FEA01314FF4801CF8
:100238004CEA113102D0404261EB410113F0004F0A
:100248004FEA03334CEA133302D0524263EB4303C1
:1002580094EA050F00F0A780A4F10104D5F1200E5F
:100268000DDB02FA0EFC22FA05F2801841F10001BA
:1002780003FA0EF2801843FA05F359410EE0A5F18E
:1002880020050EF1200E012A03FA0EFC28BF4CF0BF
:10029800020C43FA05F3C01851EBE37101F0004575
:1002A80007D54FF0000EDCF1000C7EEB00006EEB82
:1002B8000101B1F5801F1BD3B1F5001F0CD349080C
:1002C8005FEA30004FEA3C0C04F101044FEA445263
:1002D80012F5800F80F09A80BCF1004F08BF5FEAEA
:1002E800500C50F1000041EB045141EA050130BDCA
:1002F8005FEA4C0C404141EB0101013C28BFB1F5DC
:10030800801FE9D291F0000F04BF01460020B1FA26
:1003180081F308BF2033A3F10B03B3F120020CDAF9
:100328000C3208DD02F1140CC2F10C0201FA0CF0D7
:1003380021FA02F10CE002F11402D8BFC2F1200C3C
:1003480001FA02F120FA0CFCDCBF41EA0C019040F2
:10035800E41AA2BF01EB0451294330BD6FEA04043B
:100368001F3C1CDA0C340EDC04F11404C4F1200226
:1003780020FA04F001FA02F340EA030021FA04F338
:1003880045EA030130BDC4F10C04C4F1200220FA8F
:1003980002F001FA04F340EA0300294630BD21FACD
:1003A80004F0294630BD94F0000F83F4801306BF93
:1003B80081F480110134013D4EE77FEA645C18BF87
:1003C8007FEA655C29D094EA050F08BF90EA020F1E
:1003D80005D054EA000C04BF1946104630BD91EA16
:1003E800030F1EBF0021002030BD5FEA545C05D119
:1003F8004000494128BF41F0004130BD14F5800458
:100408003CBF01F5801130BD01F0004545F0FE41CB
:1004180041F470014FF0000030BD7FEA645C1ABF00
:10042800194610467FEA655C1CBF0B46024650EA37
:10043800013406BF52EA033591EA030F41F4002163
:1004480030BD00BF90F0000F04BF0021704730B5E9
:100458004FF4806404F132044FF000054FF00001BE
:1004680050E700BF90F0000F04BF0021704730B57F
:100478004FF4806404F1320410F0004548BF404254
:100488004FF000013EE700BF42004FEAE2014FEAA9
:1004980031014FEA02701FBF12F07F4393F07F4F84
:1004A80081F06051704732F07F4208BF704793F087
:1004B8007F4F04BF41F40021704730B54FF460749A
:1004C80001F0004521F000411CE700BF50EA01029D
:1004D80008BF704730B54FF000050AE050EA010246
:1004E80008BF704730B511F0004502D5404261EBB6
:1004F80041014FF4806404F132045FEA915C3FF4F7
:10050800D8AE4FF003025FEADC0C18BF03325FEA93
:10051800DC0C18BF033202EBDC02C2F1200300FA44
:1005280003FC20FA02F001FA03FE40EA0E0021FA69
:1005380002F11444BDE600BF70B54FF0FF0C4CF457
:10054800E06C1CEA11541DBF1CEA135594EA0C0F09
:1005580095EA0C0F00F0DEF82C4481EA030621EA44
:100568004C5123EA4C5350EA013518BF52EA03357F
:1005780041F4801143F4801338D0A0FB02CE4FF031
:100588000005E1FB02E506F00042E0FB03E54FF061
:100598000006E1FB03569CF0000F18BF4EF0010E59
:1005A800A4F1FF04B6F5007F64F5407404D25FEA55
:1005B8004E0E6D4146EB060642EAC62141EA555108
:1005C8004FEAC52040EA5E504FEACE2EB4F1FD0C4A
:1005D80088BFBCF5E06F1ED8BEF1004F08BF5FEAC8
:1005E800500E50F1000041EB045170BD06F000467A
:1005F80046EA010140EA020081EA0301B4EB5C0427
:10060800C2BFD4EB0C0541EA045170BD41F480111E
:100618004FF0000E013C00F3AB8014F1360FDEBF43
:10062800002001F0004170BDC4F10004203C35DA1F
:100638000C341BDC04F11404C4F1200500FA05F3A2
:1006480020FA04F001FA05F240EA020001F0004243
:1006580021F0004110EBD37021FA04F642EB0601B9
:100668005EEA430E08BF20EAD37070BDC4F10C04E3
:10067800C4F1200500FA04F320FA05F001FA04F2A7
:1006880040EA020001F0004110EBD37041F1000193
:100698005EEA430E08BF20EAD37070BDC4F120059E
:1006A80000FA05F24EEA020E20FA04F301FA05F206
:1006B80043EA020321FA04F001F0004121FA04F2AE
:1006C80020EA020000EBD3705EEA430E08BF20EA7E
:1006D800D37070BD94F0000F0FD101F000464000B8
:1006E80041EB010111F4801F08BF013CF7D041EA3A
:1006F800060195F0000F18BF704703F0004652003E
:1007080043EB030313F4801F08BF013DF7D043EA0E
:100718000603704794EA0C0F0CEA135518BF95EAC4
:100728000C0F0CD050EA410618BF52EA4306D1D14B
:1007380081EA030101F000414FF0000070BD50EA6A
:10074800410606BF1046194652EA430619D094EAF4
:100758000C0F02D150EA013613D195EA0C0F05D1DE
:1007680052EA03361CBF104619460AD181EA030132
:1007780001F0004141F0FE4141F470014FF00000EA
:1007880070BD41F0FE4141F4780170BD70B54FF085
:10079800FF0C4CF4E06C1CEA11541DBF1CEA135505
:1007A80094EA0C0F95EA0C0F00F0A7F8A4EB0504E7
:1007B80081EA030E52EA03354FEA013100F08880DE
:1007C8004FEA03334FF0805545EA131343EA1263A7
:1007D8004FEA022245EA111545EA10654FEA00265C
:1007E8000EF000419D4208BF964244F1FD0404F515
:1007F800407402D25B084FEA3202B61A65EB030571
:100808005B084FEA32024FF480104FF4002CB6EB2D
:10081800020E75EB030E22BFB61A754640EA0C00AD
:100828005B084FEA3202B6EB020E75EB030E22BFED
:10083800B61A754640EA5C005B084FEA3202B6EB2E
:10084800020E75EB030E22BFB61A754640EA9C00ED
:100858005B084FEA3202B6EB020E75EB030E22BFBD
:10086800B61A754640EADC0055EA060E18D04FEA7B
:10087800051545EA16754FEA06164FEAC30343EA1B
:1008880052734FEAC2025FEA1C1CC0D111F4801FE8
:100898000BD141EA00014FF000004FF0004CB6E7E1
:1008A80011F4801F04BF01430020B4F1FD0C88BF80
:1008B800BCF5E06F3FF6AFAEB5EB030C04BFB6EB8B
:1008C800020C5FEA500C50F1000041EB045170BD7E
:1008D8000EF0004E4EEA113114EB5C04C2BFD4EBAB
:1008E8000C0541EA045170BD41F480114FF0000E2F
:1008F800013C90E645EA060E8DE60CEA135594EAAB
:100908000C0F08BF95EA0C0F3FF43BAF94EA0C0FAD
:100918000AD150EA01347FF434AF95EA0C0F7FF422
:1009280025AF104619462CE795EA0C0F06D152EA76
:1009380003353FF4FDAE1046194622E750EA41065A
:1009480018BF52EA43067FF4C5AE50EA41047FF46B
:100958000DAF52EA43057FF4EBAE12E74FF0FF3CD0
:1009680006E000BF4FF0010C02E000BF4FF0010CA1
:100978004DF804CD4FEA410C7FEA6C5C4FEA430C1A
:1009880018BF7FEA6C5C1BD001B050EA410C0CBF69
:1009980052EA430C91EA030F02BF90EA020F0020CB
:1009A800704710F1000F91EA030F58BF994208BF32
:1009B80090422CBFD8176FEAE37040F001007047EF
:1009C8004FEA410C7FEA6C5C02D150EA013C07D146
:1009D8004FEA430C7FEA6C5CD6D152EA033CD3D091
:1009E8005DF8040B704700BF8446104662468C468B
:1009F8001946634600E000BF01B5FFF7B7FF0028BE
:100A080048BF10F1000F01BD4DF808EDFFF7F4FFE6
:100A18000CBF012000205DF808FB00BF4DF808ED71
:100A2800FFF7EAFF34BF012000205DF808FB00BF94
:100A38004DF808EDFFF7E0FF94BF012000205DF8B6
:100A480008FB00BF4DF808EDFFF7CEFF94BF01206B
:100A580000205DF808FB00BF4DF808EDFFF7C4FF64
:100A680034BF012000205DF808FB00BF4FEA410CAD
:100A78007FEA6C5C02D150EA013C0AD14FEA430C90
:100A88007FEA6C5C02D152EA033C02D14FF00000CD
:100A980070474FF0010070474FEA410212F500120B
:100AA80015D211D56FF47873B3EB625212D94FEAAD
:100AB800C12343F0004343EA505311F0004F23FA97
:100AC80002F018BF404270474FF00000704750EAEC
:100AD800013005D111F0004008BF6FF000407047A9
:100AE8004FF00000704700BF4FEA4102B2F1E04307
:100AF80024BFB3F5001CDCF1FE5C0DD901F0004CFD
:100B08004FEAC0024CEA5070B2F1004F40EB83004C
:100B180008BF20F00100704711F0804F21D113F178
:100B28003872BCBF01F00040704741F480114FEAB1
:100B38005252C2F11802C2F1200C10FA0CF320FA3A
:100B480002F018BF40F001004FEAC1234FEAD32357
:100B580003FA0CFC40EA0C0023FA02F34FEA4303C1
:100B6800CCE77FEA625307D150EA01331EBF4FF04A
:100B7800FE4040F44000704701F0004040F0FE4065
:100B880040F40000704700BF80F0004002E000BF62
:100B980081F0004142001FBF5FEA410392EA030F60
:100BA8007FEA226C7FEA236C6AD04FEA1262D2EBAA
:100BB8001363C1BFD218414048404140B8BF5B42AF
:100BC800192B88BF704710F0004F40F4000020F048
:100BD8007F4018BF404211F0004F41F4000121F05E
:100BE8007F4118BF494292EA030F3FD0A2F10102A8
:100BF80041FA03FC10EB0C00C3F1200301FA03F1E6
:100C080000F0004302D5494260EB4000B0F5000F08
:100C180013D3B0F1807F06D340084FEA310102F1C7
:100C28000102FE2A51D2B1F1004F40EBC25008BF79
:100C380020F0010040EA03007047490040EB000043
:100C4800013A28BFB0F5000FEDD2B0FA80FCACF144
:100C5800080CB2EB0C0200FA0CF0AABF00EBC25071
:100C680052421843BCBFD0401843704792F0000F5F
:100C780081F4000106BF80F400000132013BB5E7B2
:100C88004FEA41037FEA226C18BF7FEA236C21D028
:100C980092EA030F04D092F0000F08BF084670478D
:100CA80090EA010F1CBF0020704712F07F4F04D15B
:100CB800400028BF40F00040704712F100723CBF6E
:100CC80000F50000704700F0004343F0FE4040F498
:100CD800000070477FEA226216BF08467FEA236356
:100CE8000146420206BF5FEA412390EA010F40F441
:100CF800800070474FF0000304E000BF10F000438D
:100D080048BF40425FEA000C08BF704743F0964373
:100D180001464FF000001CE050EA010208BF70478E
:100D28004FF000030AE000BF50EA010208BF704715
:100D380011F0004302D5404261EB41015FEA010C2A
:100D480002BF84460146002043F0B64308BFA3F122
:100D58008053A3F50003BCFA8CF2083AA3EBC25304
:100D680010DB01FA02FC634400FA02FCC2F1200223
:100D7800BCF1004F20FA02F243EB020008BF20F05A
:100D88000100704702F1200201FA02FCC2F12002C0
:100D980050EA4C0021FA02F243EB020008BF20EAB5
:100DA800DC7070474FF0FF0C1CEAD0521EBF1CEAE3
:100DB800D15392EA0C0F93EA0C0F6FD01A4480EAD1
:100DC800010C400218BF5FEA41211ED04FF00063BA
:100DD80043EA501043EA5111A0FB01310CF00040E6
:100DE800B1F5000F3EBF490041EAD3715B0040EA0C
:100DF800010062F17F02FD2A1DD8B3F1004F40EBDC
:100E0800C25008BF20F00100704790F0000F0CF0AE
:100E1800004C08BF49024CEA502040EA51207F3A72
:100E2800C2BFD2F1FF0340EAC250704740F400004D
:100E38004FF00003013A5DDC12F1190FDCBF00F03E
:100E480000407047C2F10002410021FA02F1C2F1EC
:100E5800200200FA02FC5FEA310040F1000053EA88
:100E68004C0308BF20EADC70704792F0000F00F0D6
:100E7800004C02BF400010F4000F013AF9D040EADC
:100E88000C0093F0000F01F0004C02BF490011F470
:100E9800000F013BF9D041EA0C018FE70CEAD1536E
:100EA80092EA0C0F18BF93EA0C0F0AD030F0004CEE
:100EB80018BF31F0004CD8D180EA010000F00040A2
:100EC800704790F0000F17BF90F0004F084691F060
:100ED800000F91F0004F14D092EA0C0F01D142029A
:100EE8000FD193EA0C0F03D14B0218BF084608D163
:100EF80080EA010000F0004040F0FE4040F40000AD
:100F0800704740F0FE4040F4400070474FF0FF0C3F
:100F18001CEAD0521EBF1CEAD15392EA0C0F93EA86
:100F28000C0F69D0A2EB030280EA010C49024FEAD8
:100F3800402037D04FF0805343EA111143EA101391
:100F48000CF000408B4238BF5B0042F17D024FF449
:100F5800000C8B4224BF5B1A40EA0C00B3EB510F24
:100F680024BFA3EB510340EA5C00B3EB910F24BF0D
:100F7800A3EB910340EA9C00B3EBD10F24BFA3EB92
:100F8800D10340EADC001B0118BF5FEA1C1CE0D15A
:100F9800FD2A3FF650AF8B4240EBC25008BF20F00D
:100FA800010070470CF0004C4CEA50207F32C2BF61
:100FB800D2F1FF0340EAC250704740F400004FF0FE
:100FC8000003013A37E792F0000F00F0004C02BF2F
:100FD800400010F4000F013AF9D040EA0C0093F0F9
:100FE800000F01F0004C02BF490011F4000F013B53
:100FF800F9D041EA0C0195E70CEAD15392EA0C0FBB
:1010080008D142027FF47DAF93EA0C0F7FF470AFF2
:10101800084676E793EA0C0F04D14B023FF44CAF35
:1010280008466EE730F0004C18BF31F0004CCAD1CA
:1010380030F000427FF45CAF31F000437FF43CAF06
:101048005FE700BF4FF0FF3C06E000BF4FF0010C28
:1010580002E000BF4FF0010C4DF804CD4FEA40020A
:101068004FEA41037FEA226C18BF7FEA236C11D054
:1010780001B052EA530C18BF90EA010F58BFB2EB07
:10108800030088BFC81738BF6FEAE17018BF40F087
:10109800010070477FEA226C02D15FEA402C05D13B
:1010A8007FEA236CE4D15FEA412CE1D05DF8040BC0
:1010B800704700BF844608466146FFE70FB5FFF753
:1010C800C9FF002848BF10F1000F0FBD4DF808ED0B
:1010D800FFF7F4FF0CBF012000205DF808FB00BFFC
:1010E8004DF808EDFFF7EAFF34BF012000205DF856
:1010F80008FB00BF4DF808EDFFF7E0FF94BF0120A3
:1011080000205DF808FB00BF4DF808EDFFF7D2FF9F
:1011180094BF012000205DF808FB00BF4DF808EDE2
:10112800FFF7C8FF34BF012000205DF808FB00BFAF
:101138004FEA4002B2F1FE4F0FD34FF09E03B3EBDC
:1011480012620DD94FEA002343F0004310F0004F1C
:1011580023FA02F018BF404270474FF00000704772
:1011680012F1610F01D1420205D110F0004008BF11
:101178006FF0004070474FF00000704742000ED2F9
:10118800B2F1FE4F0BD34FF09E03B3EB126209D4BA
:101198004FEA002343F0004323FA02F070474FF070
:1011A8000000704712F1610F01D1420202D14FF0E5
:1011B800FF3070474FF00000704700BF53B94AB97D
:1011C800002908BF00281CBF4FF0FF314FF0FF3047
:1011D80001F0F6B8ADF1080C6DE904CE00F006F8A0
:1011E800DDF804E0DDE9022304B070472DE9F0479B
:1011F800089D0C46002B4ED194468C458646B2FA83
:1012080082F262D94AB1C2F12003914020FA03F375
:101218000CFA02FC194300FA02FE4FEA1C471FFAB7
:101228008CF6B1FBF7F44FEA1E4307FB141143EAAF
:10123800014304FB06F199420AD91CEB030304F1AC
:10124800FF3080F01281994240F20F81023C6344E2
:10125800591A1FFA8EF3B1FBF7F007FB101143EA96
:10126800014300FB06F69E420AD91CEB030300F17A
:10127800FF3180F0FC809E4240F2F98063440238DE
:101288009B1B40EA044000211DB1D3400022C5E960
:101298000032BDE8F0878B4205D90DB1C5E90001E0
:1012A80000210846F5E7B3FA83F1002946D1A342A5
:1012B80002D39042C0F0F080861A64EB0303012049
:1012C800002DE6D0C5E90063E3E7002A40F09080EE
:1012D800A1EB0C044FEA1C481FFA8CF70121B4FB60
:1012E800F8F64FEA1E4308FB164443EA044307FB9B
:1012F80006F0984208D91CEB030306F1FF3402D22A
:10130800984200F2CD8026461C1A1FFA8EF3B4FBD1
:10131800F8F008FB104443EA044300FB07F79F4238
:1013280008D91CEB030300F1FF3402D29F4200F2FC
:10133800B0802046DB1B40EA0640A5E7C1F1200645
:101348008B4022FA06F71F4320FA06FC04FA01F341
:1013580043EA0C03F44000FA01F8380C4FEA134949
:10136800B4FBF0FE1FFA87FC00FB1E4449EA044464
:101378000EFB0CF9A14502FA01F20AD93C190EF14B
:10138800FF3A80F08480A14540F28180AEF1020EE0
:101398003C44A4EB09041FFA83F9B4FBF0F300FB07
:1013A800134449EA044403FB0CFCA44507D93C193F
:1013B80003F1FF3067D2A44565D9023B3C4443EAB8
:1013C8000E40A0FB0293A4EB0C049C42CE469C4624
:1013D80051D34ED055B1B8EB0E0364EB0C0404FAAC
:1013E80006F6CB401E43CC40C5E90064002150E717
:1013F800C2F1200320FA03F10CFA02FC24FA03F3E9
:1014080094400C434FEA1C4800FA02FE1FFA8CF77E
:10141800B3FBF8F008FB1031230C43EA014300FB4F
:1014280007F1994208D91CEB030300F1FF362CD2CF
:1014380099422AD9023863445B1AA4B2B3FBF8F183
:1014480008FB113344EA034401FB07F3A34208D91C
:101458001CEB040401F1FF3613D2A34211D902395F
:101468006444E41A41EA004139E70446F0E60846D4
:1014780006E7C845AED2B9EB020E63EB070C01389C
:10148800A8E73146EDE7034699E73046D4E7D64664
:101498007FE7634402384DE70646234608460FE7D0
:1014A800023E634430E700BF03685A004CBF43F074
:1014B800004323F000431844704700BF2DE9F84368
:1014C80049B34F1E044615463E464FF0000909EB46
:1014D800060101EBD171491004EBC1084046FFF742
:1014E800E3FF8F4203464FEAC1000FD00830AB42FA
:1014F800204407D8FFF7D8FF0138A84208D201F1E5
:101508000109E4E7894506D04E1EE0E7AB42F9D869
:101518004046BDE8F8834FF000084046BDE8F88330
:10152800012807D0022807D0044B00280CBF184612
:10153800002070470248704702487047F11B0008B6
:10154800F51B0008F91B000830B5214B83B0044691
:101558008D1E1BB301A92846AFF3008088B30199FB
:101568002A46FFF7ABFF014658B3FFF79DFF4B68CC
:10157800A064012B28D0002B01F104001FDBFFF72A
:1015880093FF002323650368E064002B0DDBFFF75E
:101598008BFF03460020236103B030BD0D4B0E497D
:1015A800C91AC91018460191DAE7C3F30360FFF7B7
:1015B800B7FF034628B10020236103B030BD0123E3
:1015C800E0E700230920E6E700230520E3E700BF62
:1015D800000000009C6A0008C46B00080368DA0772
:1015E80010B5044606D49B0700F1480009D500F061
:1015F80069FC2368590709D51A070ED5DB0613D5E8
:1016080010BD00F057FC23685907F5D404F1D00049
:1016180000F060FC23681A07F0D404F5A87000F005
:1016280061FC2368DB06EBD404F5E870BDE81040E4
:1016380000F09CBC092070470346006800B11844BC
:10164800704700BF704700BF70B504460E46316C46
:101658002046FFF779FF054688B9326C6261236935
:1016680032462146012098470828F0D0072806D19D
:101678002846316CFFF7E6FF301D00F00FFC04F040
:10168800B7FF00BF2DE9F0470D1DD0F80C80D0F84A
:101698001890074614460FCDADF5727D0DF10C0C70
:1016A800ACE80F000FCDACE80F000FCDACE80F0091
:1016B80095E80F0002AE4FF0000E8CE80F00C6F858
:1016C80000E020E0336C7B614FF4F07231467AA879
:1016D80005F00EF83B697AAA394650469847889B28
:1016E80073642146CDE9006905463B463A46012028
:1016F800C047044618BB4FF4F0727AA9304604F08C
:10170800F7FF082D19D1316C3846FFF71DFF093452
:101718005FFA84FA05460028D4D0B36B73643A465E
:10172800CDE900693B464AF010010120C04730B9B5
:1017380028460DF5727DBDE8F087072D05D00925EF
:1017480028460DF5727DBDE8F0872046316CFFF71D
:1017580079FF03A800F0A2FB406C7047F0B5CB6B93
:101768000B6401F1040C0E460546BCE80F00F9B005
:1017780001AC0FC4BCE80F000FC4BCE80F000FC4D5
:101788009CE80F004FF0FF3784E80F00009706E051
:101798002B696A46294698470828044608D11099B3
:1017A8002846FFF7D1FE0028F2D0092079B0F0BD15
:1017B8006846FFF713FF062CF7D131462846FFF796
:1017C80043FF00BFC160D96B8261196400221946CA
:1017D80058E700BF70B5C66843690B64AEB90369C2
:1017E8000A4604460D46014602209847072805D0B8
:1017F80008280FD129462046FFF726FF3046296CD6
:10180800FFF720FF281D00F049FB0122FFF73AFFF0
:1018180004F0EEFE04F0ECFEC2681AB1CA6B0A646A
:1018280000222FE79AE700BF704700BF8368014690
:101838000BB1012018477047012910D009D883B986
:101848000F2A0ED800EB820218465368009A1360DC
:101858007047033901298CBF0220012070470846D0
:1018680070470220704700BF00B585B00A460023C4
:1018780003A900911946FFF7DFFF039805B05DF84B
:1018880004FB00BF012910D009D883B90F2A0ED84C
:10189800009900EB820209685160184670470339C5
:1018A80001298CBF0220012070470846704702209A
:1018B800704700BF10B584B0002303AC03920094B6
:1018C8000A461946FFF7DEFF04B010BD70B5D36BAA
:1018D800136402F1040C05460C46BCE80F00ADF594
:1018E8000E7D0DF15C0EAEE80F00BCE80F00AEE80F
:1018F8000F00BCE80F00AEE80F009CE80F004FF0A7
:10190800FF368EE80F00169610E0FFF7D3FF21464A
:1019180016A8A847034616AA6946082083B9049B57
:101928009847052806460CD0092809D02699684604
:10193800FFF70AFE03466A460C2116A8002BE4D0DE
:10194800092616A8FFF74AFE30460DF50E7D70BD34
:101958002DE9F04F9346CA6C89B00D4652F8041B26
:10196800069200F0030C002B79D00C0C8DF81D406A
:101978000904E4B2059102EB840202212F6D8DF86F
:101988001C10BCF1020F08BFAA6B17F001070CD09E
:1019980005A9584600F084FB18B9082009B0BDE82D
:1019A800F08F092009B0BDE8F08F1668002EEFD03F
:1019B80000F008010191B246029764469946B9F1D0
:1019C800020F48D0B2F800A0568802F10408AA6CA9
:1019D80026F001030F2158469F18FFF745FF87425D
:1019E80037D82AF001023A44824294BF00220122E9
:1019F800730003F002030AF0010A43EA0A03012B09
:101A080047D0022B31D0002BCBD114B1002A40F0A3
:101A1800C98008F10402D2F800A0BAF1000FCED1B3
:101A280005A95846029F00F03BFB0028B9D1002FBA
:101A3800B3D00F215846FFF717FF0E21024658462C
:101A4800FFF738FF674A0F215846FFF733FF072093
:101A5800A8E70022CCE7566802F10808B7E70902B0
:101A680005918DF81D30032188E7D8F8006026F02D
:101A78000043002C44D122B1019A002A5AD0002BED
:101A880058D0002E01DA08F10408013308EB83026C
:101A9800C1E7ECB9CAB1D8F80430D8F80020991CCD
:101AA8004FEAD2723FF47DAF05F15801013304913A
:101AB80000F08B8008F10400FFF7BEFD04AB01467F
:101AC8002846AFF30080002857D108F10802A2E7A2
:101AD8000D215846FFF7C8FE2B6A8342F5D1AB6A41
:101AE8009845F2D14046FFF7DFFC0F2102465846E1
:101AF800FFF7E0FE2A4600215846FFF7DBFEA6E77F
:101B08000D2158460393FFF7AFFE2A6A039B8242D2
:101B1800B7D1AA6A9045B4D100270422C5E90B724F
:101B28004244AB626A63D8F80020BA4255DB01220E
:101B38000292AAE7039408F1040A002605F158075F
:101B48001C460DE050460497FFF776FD002201463B
:101B580004AB284601360AF1040AAFF30080E0B965
:101B6800A642EFD10D215846FFF77EFE049BC5F82B
:101B78002880C5E90803062014E704460D215846C5
:101B8800FFF772FE049E2862022C04BFEE6205F184
:101B98002C06C5E90968062004E72346D8F8006042
:101BA800039C6EE74046FFF77FFC08F104020446F9
:101BB800AA632846AFF3008000283FF4F2AE22461D
:101BC8000F215846FFF776FE41E70C4658460D218F
:101BD800FFF74AFE26462862DBE7581C08EB800020
:101BE80081E700BF000000000023B1E60123AFE653
:101BF8000223ADE62DE9F0430646C3B015461C4660
:101C0800042900F2D180DFE801F0AC51CF2A0300AB
:101C1800002C40F0C980102A00F2C6800368DC0658
:101C280000F1E78020AF384600F0AAF9B46B3946D6
:101C380000234FF0010C0CFA03F22A42204603F16C
:101C4800010303D050F8042B0A600446042B01F169
:101C58000401F0D1B463384600F088F999E0032C08
:101C680040F0A28094B204EB1243102B4FEA1245C5
:101C780000F29A8003681F0700F1C38020AF38463E
:101C880000F052F9B26B07EBC50154B10B46D01AFC
:101C980001EBC401E4001D5843F8045B8B42FAD100
:101CA8002244B263384600F01DF972E0012C4FEA75
:101CB800124895B271D0052C76D108EB0509B9F117
:101CC800200F71D8B8F10F0F72D8B9F1100F03684F
:101CD80000F29F80D90708D523F00103304643F06E
:101CE800020340F8483B00F0F1F820AF384600F016
:101CF800EDF8B36B002D00F0B9806D006A1E07EB9C
:101D0800C80100250132043903EB820253F8040BA1
:101D180041F8040F9342F9D1002D00F0A18041460B
:101D2800102938BF10216B0010396F46013B07EBB3
:101D3800C1010133043902EB830352F8040B41F863
:101D4800040F9A42F9D1012C00F08880B8F10F0FE6
:101D5800B26302D820A800F0B5F8384600F0BAF807
:101D680017E00CBB806B23461FFA82FC0124371D49
:101D780004FA03F111EA0C0F024604D052F8041BCE
:101D880047F8231010460133102BF1D1AC0400D4CE
:101D9800B063002043B0BDE8F08308EB0503102BC7
:101DA80002D8B8F1100F14D1022043B0BDE8F08377
:101DB800002DEED003685A075CD46F46384600F011
:101DC8008DF8B26B6B00A8F11001013B07EBC10164
:101DD800AFE70368DA0759D420AF384600F06EF849
:101DE800B36B002D89D10433B363384600F062F831
:101DF800CFE723F01003036000F5E87000F0C0F8A7
:101E080010E723F00803036000F5A87000F08CF8D1
:101E180034E7D90708D523F0010343F0020340F85B
:101E2800483B00F053F83368580706D5304623F08E
:101E3800040340F8D03B00F051F820AF384600F0DA
:101E480045F8684600F04AF8C8F110025200B36B32
:101E5800A9F11005013A07EBC80153E720AFC2E723
:101E6800012CC0D0B8F10F0FB36392D8384600F0F8
:101E780029F88EE723F0040340F8D03B6F4600F0C2
:101E88002DF8384600F02AF8B26B9BE7304623F06D
:101E9800030340F8483B00F011F89DE700F13401D6
:101EA80091E838009C46A6464CF8045D90E8FF0F80
:101EB800E54600BD90EC210B704700BF80EC210B7C
:101EC800704700BF90EC200B704700BF80EC200BE0
:101ED800704700BFD0EC200B704700BFC0EC200B50
:101EE800704700BFF0EC0201F0EC0211F0EC0221A7
:101EF800F0EC0231F0EC0241F0EC0251F0EC02613E
:101F0800F0EC0271F0EC0281F0EC0291F0EC02A12D
:101F1800F0EC02B1F0EC02C1F0EC02D1F0EC02E11D
:101F2800F0EC02F1704700BFE0EC0201E0EC0211B6
:101F3800E0EC0221E0EC0231E0EC0241E0EC02517D
:101F4800E0EC0261E0EC0271E0EC0281E0EC02916D
:101F5800E0EC02A1E0EC02B1E0EC02C1E0EC02D15D
:101F6800E0EC02E1E0EC02F1704700BFB0FC018157
:101F7800B0FC0191B0FC01A1B0FC01B1704700BFF9
:101F8800A0FC0181A0FC0191A0FC01A1A0FC01B171
:101F9800704700BFEC4600B52DE900502DE9FF1F42
:101FA8004FF000032DE90C0001A9FFF7D7FBDDF87E
:101FB80040E012B0704700BFEC4600B52DE9005074
:101FC8002DE9FF1F4FF000032DE90C0001A9FFF7D1
:101FD80001FCDDF840E012B0704700BFEC4600B5E8
:101FE8002DE900502DE9FF1F4FF000032DE90C00EB
:101FF80001A9FFF711FCDDF840E012B0704700BFFF
:10200800EC4600B52DE900502DE9FF1F4FF0000305
:102018002DE90C0001ABFFF7D5FBDDF840E012B06D
:10202800704700BFEC4600B52DE900502DE9FF1FB1
:102038004FF000032DE90C0001AAFFF747FCDDF87B
:1020480040E012B0704700BF027A03467AB9427A7C
:10205800A2B14168013A10B44272086803220C1D0B
:102068001A7202025C60000E10BC1A6070470068A9
:10207800013A1A7202021A60000E7047B0207047C7
:1020880000B585B0002303AA009219460C22FFF779
:10209800D3FB039805B05DF804FB00BFF0E700BF71
:1020A8002DE9F043064685B00D464FF00008284656
:1020B800FFF7CAFFB028044600F0DA80070646D5C5
:1020C80000F0F003802B5ED0B02B73D01BD8902B80
:1020D80000F09B80A02B12D1C34303F007034FF4F9
:1020E8007F621A41010702F47F6201D542F48042FF
:1020F800002319463046FFF77DFD0028D7D0092078
:1021080005B0BDE8F083C02B6DD1C62800F09380E0
:10211800C72800F0B28000F0F803C02B00F0D2808E
:10212800C82800F0DD80C928E9D12846FFF78CFFD0
:10213800020300F00F0002F4702201300243012173
:1021480005233046FFF756FD0028B0D0D7E78300B7
:10215800DBB21F1D0DF10C0900231946CDF80090C4
:102168000D223046FFF768FB039BCDF80090600610
:102178004CBFDF1BFF1800230D221946304603977A
:10218800FFF780FB93E72846FFF75EFF2402204312
:10219800B0F5004FB3D004010023A2B2194630466F
:1021A800FFF728FD0028AAD114F4004F18BF4FF0FC
:1021B80001087CE7B12851D0B22800F0AD80B328DF
:1021C8006DD000F0FC03B42B99D000F00702013267
:1021D800012342F4002219463046FFF70BFD002880
:1021E8003FF465AF8BE700F0F803D02B87D100F000
:1021F80007020132052342F4002201213046FFF78D
:10220800F9FC00283FF453AF79E700F00D030D2BDC
:102218003FF475AF03AF002300F00F021946009793
:102228003046FFF709FB002300970D221946304678
:10223800FFF728FB3BE72846FFF706FF020300F0FD
:102248000F00013002F4702203230243194630467E
:10225800FFF7D0FC00283FF42AAF50E72846FFF7E5
:10226800F3FE431EDBB20E2B02467FF641AF46E774
:10227800B8F1000F40D0002042E72846FFF7E4FEFF
:10228800431EDBB20E2B02463FF639AF0023042172
:102298003046FFF7AFFC00283FF409AF2FE7284688
:1022A800FFF7D2FE020300F00F00013002F47022A3
:1022B8000123024319463046FFF79CFC00283FF4EF
:1022C800F6AE1CE700F00F020132032342F420228D
:1022D80019463046FFF78EFC00283FF4E8AE0EE7BB
:1022E8002846FFF7B1FE00F0F00200F00F031032AD
:1022F800013343EA023222E703AC434641460E2249
:1023080000943046FFF798FA009443460F2241465E
:102318003046FFF7B7FAAEE700230DF10C090D229E
:102328001946CDF800903046FFF786FA2846FFF7A1
:102338008BFE0206039C4FF002070BD500F07F00CE
:10234800B840044428460394FFF77EFE030607F1CD
:102358000707F3D400FA07F204F5017422440023B6
:102368000392CDF800900D2219463046FFF78AFAFD
:102378009DE600BF10B5C26C536884B04FF0030CE3
:1023880008321C0208461B0E01A9019402928DF81E
:102398000CC08DF80D30FFF783FE04B010BD00BFF0
:1023A80008B5FFF77BFE806C08BD00BF08B5FFF7D6
:1023B80075FEC06CC379023300EB830008BD00BF13
:1023C800704700BF034AC263022282620022C262CF
:1023D800704700BFA69B443B012800D0704708B552
:1023E8004FF6FF73994200D008BD0248FFF7EAFF95
:1023F800FAE700BF8001002008B50022102102483A
:1024080001F08EFC08BD00BF0000024008B50122A3
:102418001021024801F084FC08BD00BF0000024002
:1024280008B500220121024801F07AFC08BD00BF6E
:102438000004024008B501221146024801F070FC70
:1024480008BD00BF0004024030B583B004469223A3
:102458008DF80730FFF7D0FF0A4D4FF47A73012249
:102468000DF10701284602F0DCF84FF47A730722D1
:102478002146284602F0E1FA2046FFF7C7FF03B0DD
:1024880030BD00BFAC03002030B583B004468223C2
:102498008DF80730FFF7C4FF0A4D4FF47A73012215
:1024A8000DF10701284602F0BCF84FF47A730622B2
:1024B800E11D284602F0C1FA2046FFF7BBFF03B032
:1024C80030BD00BFAC030020F8B50446FFF7BCFFE1
:1024D800A078000200B2637818432679360236B233
:1024E800E3781E43A5792D022DB263791D43A36AB3
:1024F8003BB1012B21D0022B21D0032B02D1114F4C
:1025080000E0114FFEF7FAFB3946FEF74BFCFEF7E9
:102518000FFE20613046FEF7F1FB3946FEF742FC1C
:10252800FEF706FE60612846FEF7E8FB3946FEF72F
:1025380039FCFEF7FDFDA061F8BD044FE2E7044F4A
:10254800E0E700BF0A35EB3B0A356B3A0A35EB3A50
:102558000A356B3BF8B50446FFF796FF207A000270
:1025680000B2E3791843A67A360236B2637A1E437C
:10257800257B2D022DB2E37A1D43E36A63B1013B4B
:10258800032B0AD8DFE803F024020406114F04E005
:10259800114F02E0114F00E0114FFEF7AFFB394633
:1025A800FEF700FCFEF7C4FDE0613046FEF7A6FB2F
:1025B8003946FEF7F7FBFEF7BBFD20622846FEF71B
:1025C8009DFB3946FEF7EEFBFEF7B2FD6062F8BDF3
:1025D800044FE2E7DAAC7A3C6C09F93B6C09793BC9
:1025E80023DB793D23DBF93C2DE9F04F8DB0044620
:1025F8004669856996FBF5F0FDF734FF02F074FD36
:1026080087A3D3E90023FEF7C1F8FEF76DFA089017
:10261800D4F8108005FB05F506FB0650FDF722FFF0
:1026280002F03CFD06460F464046FDF71BFF3246CA
:102638003B46FEF7ABF802F057FD01F1004178A3E5
:10264800D3E90023FEF7A2F8FEF74EFA0990D4F872
:102658001CA0D4F830B05846FDF716FF80468946CE
:1026680002F01CFFCDE90001656B2846FDF70CFF61
:1026780002460B46CDE9062302F010FF06460F4638
:10268800CDE9026702460B46DDE90001FDF754FF7C
:1026980006460F464046494602F0B6FE8046894641
:1026A80002460B4630463946FEF770F806460F4696
:1026B800206AFDF7D7FE02460B46CDE904233046D3
:1026C8003946FDF739FF06460F465046FDF7CAFE64
:1026D80032463B46FDF77AFDCDE90A01DDE9060100
:1026E80002F092FE02460B46CDE90623DDE9000121
:1026F800FDF722FF42464B46FEF748F806460F46CE
:10270800606AFDF7AFFE02460B46CDE9002330466E
:102718003946FDF711FF02460B46DDE90A01FDF7D0
:1027280055FDFEF7E1F90A90DDE90623DDE904012C
:10273800FDF702FF06460F46DDE90023DDE9020149
:10274800FDF7FAFE02460B4630463946FDF73CFDDA
:10275800FEF7CAF9824642464B46DDE90201FEF71A
:1027680015F802460B46DDE90401FDF7E5FE0646CD
:102778000F4642464B46DDE90601FEF707F80246DA
:102788000B46DDE90001FDF7D7FE02460B46304651
:102798003946FDF71BFDFEF7A7F9064622490A98B8
:1027A800FEF700FB01462846FEF7F4F907461E49E6
:1027B8005046FEF7F7FA01465846FEF7EBF9804611
:1027C800A56B19493046FEF7EDFA01462846FEF793
:1027D800E1F90546E66B08993046FEF7E3FA8246CA
:1027E80031464FF07E50FEF7D3F981463946FEF761
:1027F800D9FA01465046FEF7CDF96063099930468B
:10280800FEF7D0FA064641464846FEF7CBFA01469F
:102818003046FEF7BFF92063A5630DB0BDE8F08F21
:10282800000000A046DF913F6F12833A08B54FF6CB
:10283800FF710120FFF7D0FD08BDF8B507460D462A
:10284800144611461846FEF7A3F9064639462846A7
:10285800FEF79EF9054601463046FEF757FB01464E
:102868002846FEF79FFA2146FEF794F9F8BD30B5E1
:1028780083B004460025C560056145618561C56171
:1028880005624562436803F50173C3600823C361A9
:10289800836D0193436D0093036DC26C816C70303E
:1028A80000F0B8F8E36E0193A36E0093636E226E96
:1028B800E16D04F1A00000F0ADF82570204603B0EA
:1028C80030BD00002DE9F04383B0044600F1280331
:1028D80000F10C020021414800F09FFE94F8280006
:1028E80094F82930A76BE763002503EB0020FEF777
:1028F80005FA00903A4B2A463A492846FFF79DFFC9
:102908000546A0633946FEF743F906463649FEF701
:1029180005FC70B3206CFDF7B7FD8046894630464C
:10292800FDF7B2FD0022314BFDF74EFC06460F467F
:10293800A068FDF7A9FD02460B4630463946FDF76B
:1029480025FF02460B4640464946FDF73FFCFEF789
:10295800CBF8206494F82A0094F82B3003EB00207D
:10296800FEF7CCF9A168FEF7D1FA606403B0BDE8C0
:10297800F0831F493046FEF7B3FB00B3206CFDF728
:1029880083FD804689463046FDF77EFD0022174BC1
:10299800FDF71CFC06460F46A068FDF775FD0246CC
:1029A8000B4630463946FDF7F1FE02460B464046D7
:1029B8004946FDF70BFCFEF797F82064CAE7266C3A
:1029C800A1683846FEF7A2FA01462846FEF7E0F865
:1029D80001463046FEF7DEF82064BBE778030020A6
:1029E8000000B44300F8FF450000344300807640FF
:1029F800000034C310B50446826BA03000F012F812
:102A08000146626C04F1700000F00CF8FEF7B6FBAA
:102A180080B210BD016042608360009BC360019B6F
:102A2800036170472DE9F84304460846D4F8188036
:102A3800C4F820801146FEF7ABF80546A061E169AD
:102A4800FEF7A8F8E061E6683146FEF75DFB00B1E5
:102A5800E66106F100463146E069FEF741FB00B148
:102A6800E6616168E069FEF79DF90646A0622168A3
:102A78002846FEF797F907466062D4F80890414661
:102A88002846FEF785F801464846FEF78BF90546C5
:102A9800E06239463046FEF77DF801462846FEF7E3
:102AA80079F8606125692946FEF738FB00B1656150
:102AB80005F1004529466069FEF712FB00B1656122
:102AC8006069BDE8F8830000012800D070474FF620
:102AD800FF739942FAD110B54FF07E542246012176
:102AE8000448FFF7C4FE224603210348FFF7BFFE50
:102AF80010BD00BFA4020020D40100200268354B9D
:102B08001B689A4200D0704770B582B0324801F015
:102B180039F9324C2046FFF7D7FC2046FFF71AFD5B
:102B28002046FFF761FD2E4B1B68B3F57A7F2EDB3D
:102B38002C4EB16B3046FFF75DFF04462A4DA96B5A
:102B48002846FFF757FF0246C4F30F207368591E43
:102B580002AE06EB410101F8080C5B0007336B4439
:102B680003F8084CC2F30F206B68591E06EB4101AD
:102B780001F8080C5B0007336B4403F8082C1B4B67
:102B88006A461B491B4800F0D3FC02B070BD154CC7
:102B9800636859000139184AFF205054013B0B2142
:102BA80002F81310114B1249124800F0C1FC2046DC
:102BB800FFF788FE114E3568114B1D60A06BFEF7BC
:102BC800B7FA30608542B3D1054A13680133136000
:102BD800AEE700BF04040020A0030020800100200D
:102BE800D0010020A4020020D4010020740300209A
:102BF8000000002078030020C8010020C401002044
:102C0800C001002008B50268054B1B689A4200D035
:102C180008BD0448FFF756FE0348FFF753FEF7E7E1
:102C280078030020A4020020D401002008B54FF644
:102C3800FF710120FFF748FF08BD000008B50D48E7
:102C48000D4B03600323436000238360C3604FF48C
:102C5800102202614FF400124261037643768376B4
:102C6800C3760377437700F0F1FA00B908BD00F0A6
:102C7800CDF8FBE7780300200064004010B588B069
:102C880000230393049305930693079302681C4B50
:102C98009A4201D008B010BD0024019403F5EA332C
:102CA8001A6C42F000721A641A6C02F000720192F7
:102CB800019A02941A6B42F008021A631B6B03F024
:102CC80008030293029B03230393022204920693B0
:102CD8000923079303A90B4800F028FF2246214641
:102CE800132000F0E7FE132000F0F4FE22462146F0
:102CF800142000F0DFFE142000F0ECFECAE700BF4D
:102D080000640040000C02402DE9F0418AB0002424
:102D18000594069407940894099401942D4B1A6B12
:102D280042F002021A631A6B02F002020192019A3F
:102D380002941A6B42F001021A631A6B02F0010244
:102D48000292029A03941A6B42F008021A631A6BF1
:102D580002F008020392039A04941A6B42F080026C
:102D68001A631B6B03F080030493049BDFF86880ED
:102D780022464FF48061404600F0D2FF174F2246AA
:102D88001021384600F0CCFF154E2246012130466E
:102D980000F0C6FF4FF4806305930125069507945C
:102DA800089405A9404600F0C1FE10230593069536
:102DB8000794089405A9384600F0B8FE05950695CD
:102DC8000794089405A9304600F0B0FE0AB0BDE8A3
:102DD800F08100BF00380240001C024000000240A1
:102DE8000004024008B50748074B0360042343600A
:102DF80040F2E223836000F099FF00B908BD00F0BB
:102E080005F8FBE7A00300200030004072B6FEE79B
:102E180000B595B03022002108A803F0F0FB00238C
:102E2800039304930593069307930193214A116C26
:102E380041F080511164126C02F080520192019AA3
:102E480002931D4B1A6842F480421A601B6803F40F
:102E580080430293029B092308934FF4803309931C
:102E680001230D9302230E934FF480020F92062242
:102E78001092A822119212930423139308A800F029
:102E880087FF98B90F230393022304930023059324
:102E98004FF4A05306934FF480530793052103A8DA
:102EA80001F0C6F920B915B05DF804FBFFF7AEFFD5
:102EB800FFF7ACFF003802400070004000B58BB04F
:102EC80000F098F9FFF7A4FFFFF71EFFFFF7B6FE23
:102ED80000F0F8F800F024F8FFF784FF0D4801F03F
:102EE80005FFEC460C4C0FCCACE80F000FCCACE85F
:102EF8000F0094E803008CE80300084C694620465C
:102F080000F04AFA204600F0E5FA0221204600F0D7
:102F180039FCFEE704040020F86700087803002065
:102F280008B50F480F4B03604FF4827343600023CA
:102F38008360C36002220261012242614FF4007281
:102F480082613822C2610362436283620A23C362D8
:102F580001F008FB00B908BDFFF758FFFBE700BF09
:102F6800AC03002000300140F0B589B00023039382
:102F780004930593069307930268224B9A4201D063
:102F880009B0F0BD0024009403F584335A6C42F470
:102F980080525A645A6C02F480520092009A01944A
:102FA8001A6B42F002021A631A6B02F002020192D3
:102FB800019A02941A6B42F001021A631B6B03F028
:102FC80001030293029B1823039302270497032605
:102FD80006960525079503A90B4800F0A7FD802351
:102FE8000393049705940696079503A9074800F0EC
:102FF8009DFD22462146232000F05CFD232000F0A1
:1030080069FDBDE7003001400004024000000240B5
:1030180082B0002100910B4B5A6C42F480425A64F2
:103028005A6C02F480420092009A01911A6C42F0A4
:1030380080521A641B6C03F080530193019B02B009
:10304800704700BF00380240FEE7FEE7FEE7FEE7F4
:10305800FEE770477047704708B500F0E5F808BD0F
:1030680008B5024800F0ACFB08BD00BF780300209B
:1030780008B5024800F0A4FB08BD00BF7803002093
:1030880008B5024801F09EFD08BD00BFAC03002052
:1030980008B5024801F072FE08BD00BF0404002014
:1030A8000120704708B503F0F7FA162303604FF0C4
:1030B800FF3008BD08B54FF0FF31FFF7F3FFFEE71B
:1030C8007047000000B583B00023009301930F48B8
:1030D8000F4A026053224260836040F2E732C260C6
:1030E800836101F067FF50B900230093019369469B
:1030F800064801F08BFF28B903B05DF804FBFFF721
:1031080085FEF1E7FFF782FEF6E700BF0404002022
:103118000010004002680E4B9A4200D0704700B57C
:1031280083B00021019103F50A331A6C42F01002B2
:103138001A641B6C03F010030193019B0A463620A6
:1031480000F0B8FC362000F0C5FC03B05DF804FBC5
:1031580000100040DFF834D0FFF7B2FF0C480D49EB
:103168000D4A002302E0D458C4500433C4188C42DA
:10317800F9D30A4A0A4C002301E013600432A24240
:10318800FBD303F08FFAFFF799FE70470000022087
:103198000000002064010020D86B000864010020B2
:1031A80024070020FEE7000010B504460E4B1A78ED
:1031B8004FF47A73B3FBF2F30C4A1068B0FBF3F0E8
:1031C80000F08CFC68B90F2C01D901200AE000221C
:1031D80021464FF0FF3000F06DFC054B1C600020CD
:1031E80000E0012010BD00BF1C00002018000020D6
:1031F8002000002008B50B4B1A6842F400721A60D0
:103208001A6842F480621A601A6842F480721A607E
:10321800032000F03DFC0F20FFF7C6FFFFF7F8FE84
:10322800002008BD003C0240034A1168034B1B788C
:103238000B441360704700BF4C0400201C000020A2
:10324800014B1868704700BF4C040020002800F0AC
:10325800A18038B5044690F82030D3B122681368AD
:1032680043F001031360FFF7EBFF054623685A6834
:1032780012F0010F10D1FFF7E3FF401B0A28F5D920
:10328800636A43F400336362052384F82030012025
:1032980038BDFFF7F3FCE1E71A6822F002021A6072
:1032A800FFF7CEFF054623685A6812F0020F0DD0CB
:1032B800FFF7C6FF401B0A28F5D9636A43F40033B9
:1032C8006362052384F820300120E1E7227E012A89
:1032D8003DD01A6822F080021A60637E012B3BD031
:1032E8002268136823F040031360A37E012B39D0B2
:1032F8002268136823F020031360E37E012B37D084
:103308002268136843F010031360237F012B35D024
:103318002268136823F008031360637F012B33D0FE
:103328002268136823F004031360A368E268134358
:1033380022691343626913436268013A216813439F
:10334800CB6100206062012384F82030A0E71A686E
:1033580042F080021A60C0E72268136843F0400315
:103368001360C2E72268136843F020031360C4E7C0
:103378002268136823F010031360C6E722681368F5
:1033880043F008031360C8E72268136843F0040396
:103398001360CAE70120704790F82030013BDBB288
:1033A800012B05D9436A43F4802343620120704707
:1033B80010B5474BD3F8002242F00102C3F80022AF
:1033C800D3F8002222F47C52C3F80022D3F800225A
:1033D800486A42EA0022C3F800224A6902F01F0242
:1033E800012000FA02F2D3F81C026FEA020C20EA6C
:1033F8000200C3F81C02CB69CBB9354BD3F80C02D9
:103408000CEA0000C3F80C028C884869D1F80CE07B
:1034180044EA0E44483043F830408C68088840EA53
:1034280004404C6904F1480E03EBCE035860CB69A5
:10343800012B1ED08B69002B35D12548D0F80432DA
:103448000CEA0303C0F804320B699BBB2048D0F890
:1034580014320CEA0303C0F814320B6A012B30D083
:103468001B4AD2F8003223F00103C2F800320020D0
:1034780010BD174BD3F80C021043C3F80C028C880C
:103488004869D1F800E044EA0E44483043F8304037
:1034980088894C69D1F808E040EA0E40483403EBCB
:1034A800C4035860C6E70A48D0F804321343C0F88A
:1034B8000432C9E70648D0F814321343C0F814326E
:1034C800CBE70349D1F81C321343C1F81C32C7E7D4
:1034D8000064004070B5044690F82050EDB2012D0C
:1034E80006D0436A43F4002343620125284670BD91
:1034F800022380F820300268136823F00103136068
:10350800FFF79EFE064623685B6813F0010F0CD098
:10351800FFF796FE831B0A2BF5D9636A43F4003341
:103528006362052384F82030E0E700256562DDE763
:1035380030B590F820C00468A4680CF1FF3C5FFA2D
:103548008CFCBCF1010F62D814F0E05F59D0C4F3D1
:10355800016C012404FA0CF41C608B68002B3DD12B
:103568000D68CB68046843EA45550CF118031B0144
:10357800E55003680C690CF1180E03EB0E135C6040
:103588000B7D012B35D0D17993791B0443EA016374
:10359800517943EA012314790168234301EB0C11A3
:1035A800C1F88C31D17893781B0443EA01635178D0
:1035B80043EA0123117802680B4302EB0C12C2F8AC
:1035C800883102680CF1180C4FEA0C1C52F80C30C8
:1035D80043F0010342F80C3000201DE04C6843EA38
:1035E800C403CC6823430CF11804240105682B514B
:1035F800BFE7036803EB0E13596841F48071596003
:10360800C1E7436A43F400134362012004E0436ABC
:1036180043F480234362012030BD90F820C00CF1B0
:10362800FF3C5FFA8CFCBCF1010F00F2A58030B4BE
:1036380051B90468E46814F0030F10D1436A43F4E5
:103648000013436201207EE00468246914F0030F2C
:1036580005D1436A43F400134362012073E005680F
:1036680001F11B0424012C5904F004049460002C7B
:103678006BD1056801F11B0424012C59640D1460F9
:10368800046801F11B0C4FEA0C1C54F80C4004F0C0
:103698000204D4600468A444DCF8045015F0080F50
:1036A8005BD008241461046801F11B0C04EB0C14B2
:1036B8006468C4F307249461046804EB0C14646818
:1036C800240C5461026802EB0112D2F8B8211A7076
:1036D800026802EB0112D2F8B821C2F307225A702D
:1036E800026802EB0112D2F8B821C2F307429A70BD
:1036F800026802EB0112D2F8B821120EDA700268E1
:1037080002EB0112D2F8BC211A71026802EB011215
:10371800D2F8BC21C2F307225A71026802EB0112E7
:10372800D2F8BC21C2F307429A71026802EB011277
:10373800D2F8BC21120EDA71C1B90268D36843F01D
:103748002003D360002030BC7047056801F11B04DA
:1037580024012C59E408546092E701F11B0504EB9D
:103768000514646804F00F0414619CE70268136987
:1037780043F020031361E5E7436A43F4802343627F
:103788000120704790F82030013BDBB2012B05D9AE
:10379800436A43F4802343620120704702685369F7
:1037A8000B4353610020704770477047704770475C
:1037B8007047704770477047704770477047704749
:1037C8002DE9F84F054603685C69D3F804809F68C3
:1037D800D3F80CB0D3F810A0D3F8189014F0010661
:1037E8003BD017F0010616D001229A6017F0020F9D
:1037F80008D117F0040F0CD117F0080606D04FF4C3
:10380800805608E0FFF7D0FF002604E0FFF7CFFF5F
:1038180001E04FF4006617F4807F0DD02B684FF459
:1038280080729A6017F4007F40F0868017F4806FEA
:1038380000F0868046F4005617F4803F0DD02B68C0
:103848004FF480329A6017F4003F40F0838017F4F9
:10385800802F00F0838046F4004614F0080F07D04C
:103868001BF0100F04D046F400762B681022DA60A3
:1038780014F0040F02D01BF0080F79D114F0020FD6
:1038880004D02B68DB6813F0030F78D114F0400FD5
:1038980007D01AF0100F04D046F480662B68102267
:1038A8001A6114F0200F02D01AF0080F6BD114F02F
:1038B800100F04D02B681B6913F0030F6AD114F49E
:1038C800003F02D018F0100F68D114F4803F02D0E6
:1038D80018F0080F69D114F4004F7AD018F0040FCB
:1038E80074D014F4807F04D019F0010F01D046F091
:1038F800010614F4007F04D019F0020F01D046F03D
:10390800020614F4806F04D019F0040F01D046F0B9
:10391800040614F4006F59D019F0700956D0B9F1A3
:10392800400F65D058D8B9F1200F5ED0B9F1300FEB
:1039380042D146F0200644E02846FFF736FF7BE7F1
:1039480017F4006F02D046F4804675E72846FFF763
:103958002FFF71E72846FFF729FF7EE717F4002FAE
:1039680002D046F4803678E72846FFF722FF74E74E
:103978002B680822DA602846FFF71CFF7EE72846F6
:10398800FFF740F982E72B6808221A612846FFF7FB
:1039980013FF8CE72846FFF70EFF90E72B681022ED
:1039A8005A602846FFF709FF8FE72B6808225A60FC
:1039B8002846FFF703FF8EE7B9F1100F01D146F053
:1039C80008062A68936923F0700393612B68042220
:1039D8005A609EB9BDE8F88FB9F1500F0BD0B9F114
:1039E800600FEED146F48076EBE746F01006E8E784
:1039F80046F04006E5E746F08006E2E76B6A3343A7
:103A08006B622846FFF7DBFEE4E70000002807DBCF
:103A180000F01F02400901239340024A42F8203077
:103A2800704700BF00E100E0002808DB0901C9B2C7
:103A380000F1604000F5614080F80013704700F025
:103A48000F000901C9B2014B1954704714ED00E089
:103A580000B500F00700C0F1070CBCF1040F28BF47
:103A68004FF0040C031D062B0FD9C31E4FF0FF3E69
:103A78000EFA0CF021EA000199400EFA03FE22EA40
:103A88000E0241EA02005DF804FB0023EEE70000A5
:103A9800074AD36823F4E0631B041B0C000200F4FC
:103AA800E060034343F0BF6343F40033D3607047DF
:103AB80000ED00E010B50446054BD868C0F30220BD
:103AC800FFF7C6FF01462046FFF7AEFF10BD00BF57
:103AD80000ED00E008B5FFF799FF08BD0138B0F127
:103AE800807F0BD24FF0E0235861054AF02182F81D
:103AF80023100020986107221A617047012070473F
:103B080000ED00E090F83530DBB2022B03D08023C3
:103B1800436501207047052380F835300268136833
:103B280023F00103136000207047000000230F2BCF
:103B380000F2EC8030B583B068E085684FEA430E48
:103B4800032404FA0EF425EA0405CC6804FA0EF4FA
:103B58002C438460446824EA02044A68C2F30012D1
:103B68009A40224342605FE0DC08083450F8242081
:103B780003F00705AD004FF00F0E0EFA05FE22EA1E
:103B88000E0E0A69AA4042EA0E0240F824205FE0BD
:103B9800072200E0002202FA0EF22A4302345C4DAA
:103BA80045F824205B4A94686FEA0C0224EA0C0565
:103BB800D1F804E01EF4801F01D04CEA0405554CEE
:103BC800A560E46802EA0405D1F804E01EF4001FC9
:103BD80001D04CEA04054F4CE560646802EA04052C
:103BE800D1F804E01EF4003F01D04CEA0405494C2A
:103BF8006560246822404D6815F4803F01D04CEA86
:103C08000402444C226001330F2B7DD801229A40D4
:103C18000C6804EA020C32EA0404F4D14C6804F09B
:103C28000304013C012C88D94A6802F00302032AE4
:103C380009D0C4685D000322AA4024EA02048A6805
:103C4800AA402243C2604A6802F00302022A8BD0CB
:103C580004684FEA430E032202FA0EF224EA020431
:103C68004A6802F0030202FA0EF2224302604A682E
:103C780012F4403FC7D000220192274A546C44F402
:103C880080445464526C02F480420192019A9C0868
:103C9800A51C1F4A52F8255003F0030E4FEA8E0E5A
:103CA8000F2202FA0EF225EA02051C4A90423FF45E
:103CB80071AF02F5806290421AD002F5806290429C
:103CC80018D002F58062904216D002F580629042C8
:103CD80014D002F58062904212D002F580629042C0
:103CE80010D002F5806290423FF452AF082252E7AA
:103CF800012250E702224EE703224CE704224AE75A
:103D0800052248E7062246E703B030BD704700BFEA
:103D180000380140003C01400038024000000240E9
:103D28000AB18161704709048161704740B338B5B1
:103D3800044603684CF6CC421A60036845F25552B3
:103D48001A60036842685A60036882689A60FFF7DD
:103D580077FA05462368DA6812F0030F0BD0FFF7ED
:103D68006FFA401B3128F5D92368DB6813F0030F7D
:103D7800F0D0032003E04AF6AA221A60002038BDDA
:103D88000120704703684AF6AA221A60002070478B
:103D9800002800F0E08170B582B00446036813F093
:103DA800010F3BD09F4B9B6803F00C03042B2CD0D6
:103DB8009C4B9B6803F00C03082B21D06368B3F578
:103DC800803F4FD0B3F5A02F52D0964B1A6822F4FB
:103DD80080321A601A6822F480221A606368002B05
:103DE80050D0FFF72DFA05468E4B1B6813F4003FA1
:103DF80014D1FFF725FA401B6428F5D90320B1E157
:103E0800884B5B6813F4800FD8D0864B1B6813F47B
:103E1800003F03D06368002B00F09F81236813F0F4
:103E2800020F54D07F4B9B6813F00C0F3ED07D4B94
:103E38009B6803F00C03082B33D0E368002B68D091
:103E4800794B01221A60FFF7FBF90546754B1B6891
:103E580013F0020F54D1FFF7F3F9401B0228F5D9EC
:103E680003207FE16F4A136843F480331360B5E79A
:103E78006C4B1A6842F480221A601A6842F4803245
:103E88001A60ABE7FFF7DCF90546664B1B6813F4CD
:103E9800003FC3D0FFF7D4F9401B6428F5D90320AD
:103EA80060E1604B5B6813F4800FC6D15D4B1B6803
:103EB80013F0020F03D0E368012B40F05081594AF8
:103EC800136823F0F803216943EAC10313602368E8
:103ED80013F0080F42D063696BB3534B0122C3F848
:103EE800802EFFF7ADF905464E4B5B6F13F0020FBE
:103EF80034D1FFF7A5F9401B0228F5D9032031E199
:103F0800484A136823F0F803216943EAC1031360A0
:103F1800DDE7454B00221A60FFF792F90546414B51
:103F28001B6813F0020FD2D0FFF78AF9401B022852
:103F3800F5D9032016E13C4B0022C3F8802EFFF789
:103F48007FF90546374B5B6F13F0020F06D0FFF77A
:103F580077F9401B0228F5D9032003E1236813F001
:103F6800040F77D02F4B1B6C13F0805F33D10023E5
:103F780001932C4B1A6C42F080521A641B6C03F0AC
:103F880080530193019B0125284B1B6813F4807F04
:103F980023D0A368012B34D0052B38D0214B1A6FBE
:103FA80022F001021A671A6F22F004021A67A36846
:103FB800002B3DD0FFF744F906461A4B1B6F13F050
:103FC800020F46D1FFF73CF9801B41F28833984233
:103FD800F3D90320C6E00025D6E7144A136843F452
:103FE80080731360FFF72CF90646104B1B6813F417
:103FF800807FCED1FFF724F9801B0228F5D9032052
:10400800B0E0084A136F43F001031367CFE7054B8D
:104018001A6F42F004021A671A6F42F001021A6717
:10402800C5E700BF0038024000004742007000406A
:10403800FFF706F90646524B1B6F13F0020F08D024
:10404800FFF7FEF8801B41F288339842F3D903202A
:1040580088E0EDB9A369002B00F08380484A926894
:1040680002F00C02082A51D0022B17D0454B00222F
:104078001A66FFF7E5F80446414B1B6813F0007F0A
:1040880042D0FFF7DDF8001B0228F5D9032069E0CC
:104098003B4A136C23F080531364DBE7394B00224F
:1040A8001A66FFF7CDF80546354B1B6813F0007FFD
:1040B80006D0FFF7C5F8401B0228F5D9032051E0C8
:1040C800E369226A1343626A43EA8213A26A5208C6
:1040D800013A43EA0243E26A43EA0263284A536028
:1040E800284B01221A66FFF7ABF80446244B1B68DD
:1040F80013F0007F06D1FFF7A3F8001B0228F5D9BB
:1041080003202FE000202DE000202BE0012B2BD0F6
:104118001B4B5B6803F48001E269914226D103F0EE
:104128003F02216A8A4223D1616A47F6C0721A4067
:10413800B2EB811F1ED103F44031A26A5208013A42
:10414800B1EB024F18D103F07063E26AB3EB026F70
:1041580014D1002006E001207047012002E0012070
:1041680000E0002002B070BD0120FBE70120F9E764
:104178000120F7E70120F5E70120F3E70120F1E747
:10418800003802400000474208B5264B9B6803F000
:104198000C03042B41D0082B41D1224B5A6802F062
:1041A8003F025B6813F4800F12D01E4B5968C1F3AD
:1041B80088111D480023A1FB0001FCF7FFFF194BE4
:1041C8005B68C3F3014301335B00B0FBF3F027E006
:1041D800144B5868C0F388104FEA401CBCEB000C25
:1041E8006EEB0E0E4FEA8E1343EA9C634FEA8C1176
:1041F800B1EB0C0163EB0E03DB0043EA5173C9001A
:1042080011EB000C43F10003990200234FEA8C20C4
:1042180041EA9C51FCF7D2FFD1E7034800E003488C
:1042280008BD00BF00380240001BB7000024F4009E
:10423800002800F09B8070B50D4604464F4B1B6864
:1042480003F007038B4208D2CBB24C4A13701368B1
:1042580003F007038B4240F08B80236813F0020FB2
:1042680017D013F0040F04D0454A936843F4E05381
:104278009360236813F0080F04D0414A936843F40D
:10428800604393603E4A936823F0F003A1680B43B0
:104298009360236813F0010F32D06368012B21D09B
:1042A8009A1E012A25D9364A126812F0020F61D0E7
:1042B80033498A6822F0030213438B60FEF7C0FF7C
:1042C80006462F4B9B6803F00C036268B3EB820F22
:1042D80016D0FEF7B5FF801B41F288339842F0D91B
:1042E800032042E0264A126812F4003FE0D1012080
:1042F8003BE0234A126812F0007FD9D1012034E054
:104308001E4B1B6803F00703AB4207D9EAB21B4BED
:104318001A701B6803F00703AB422DD1236813F012
:10432800040F06D0164A936823F4E053E1680B4360
:104338009360236813F0080F07D0114A936823F499
:104348006043216943EAC1039360FFF71DFF0C4BEB
:104358009B68C3F303130B4AD35CD8400A4B18601D
:104368000A4B1868FEF720FF002070BD0120704737
:104378000120FAE70120F8E70120F6E7003C0240B7
:1043880000380240206800081800002020000020A3
:104398002DE9F04782B00546884617461E46FEF7C7
:1043A8004FFF0A9B1B1A03EB0609FEF749FF8246DB
:1043B800284B1B68C3F3CB3309FB03F301932B682A
:1043C8009C6838EA04040CBF01230023BB423DD09B
:1043D800B6F1FF3FF3D0FEF733FFA0EB0A004845E4
:1043E80007D2019A02B14A46019B013B01939146CB
:1043F800E5E72A68536823F0E00353606B68B3F578
:10440800827F0BD0AB6AB3F5005F14D0012385F827
:104418005130002385F85030032018E0AB68B3F51D
:10442800004F02D0B3F5806FECD12A68136823F0EF
:1044380040031360E6E72A68136823F40053136007
:104448002A68136843F400531360DFE7002002B0C2
:10445800BDE8F0871800002070B584B004460D460A
:10446800164600920B4601220221FFF791FFD0B9B0
:10447800174B1B68174AA2FB03235B0D4FF47A7294
:1044880002FB03F303936368B3F5827F11D0039BA8
:104498003BB1039B013B039323689B6813F0800F98
:1044A800F5D104B070BD636D43F02003636503204C
:1044B800F7E700962B46002280212046FFF768FF89
:1044C8000028EED0636D43F0200363650320E8E71E
:1044D80018000020819F5E1610B582B004460B4676
:1044E8004168B1F5827F14D06168B1F5827F2AD125
:1044F800A168B1F5806F19D0009200228021204672
:10450800FFF746FF30B3636D43F020036365032074
:1045180020E08168B1F5004F02D0B1F5806FE3D19A
:104528002068016821F040010160DDE70092002267
:1045380001212046FFF72CFF60B1636D43F0200393
:104548006365032006E00092002201212046FFF760
:104558001FFF08B902B010BD636D43F02003636507
:104568000320F7E700285AD010B50446436A33B948
:104578004368B3F5827F05D00023C36102E00023BE
:10458800036143610023A36294F85130002B40D0AB
:10459800022384F851302268136823F04003136023
:1045A800636803F48273A26802F404421343E26866
:1045B80002F400621343226902F0020213436269A3
:1045C80002F001021343A26902F400721343E26984
:1045D80002F038021343226A02F080021343A26AEF
:1045E80002F40052216813430B60638B03F0040349
:1045F800626A02F01002216813434B602268D36993
:1046080023F40063D36100206065012384F85130EE
:1046180010BD84F850302046FEF7A6FCB8E701200C
:1046280070472DE9F04383B00446894690461D46FD
:10463800FEF706FE94F85160F6B2012E40F0CC80E9
:104648000746B9F1000F00F0C880B8F1000F00F07C
:10465800C48094F85030012B00F0C380012384F803
:104668005030032384F8513000236365C4F8309038
:10467800A4F83480A4F83680A363A387E38763642F
:104688002364A368B3F5004F1ED023681A6812F09C
:10469800400F03D11A6842F040021A60E368B3F58C
:1046A800006F1CD0636813B1B8F1010F5FD1226BA2
:1046B800236812781A73236B01332363E38E9BB24A
:1046C800013B9BB2E38652E02268136823F0400363
:1046D80013602268136843F480431360D5E7636866
:1046E80013B1B8F1010F15D1226B23681288DA6073
:1046F800236B02332363E38E9BB2013B9BB2E386B9
:1047080008E0FEF79DFDC01BA84202D3B5F1FF3FAC
:1047180015D1A5B1E38E9BB2002B42D023689A68CD
:1047280012F0020FEDD0226B1288DA60236B02338D
:104738002363E38E9BB2013B9BB2E386EAE7012346
:1047480084F85130002384F85030032645E0226B6A
:1047580012781A73236B01332363B4F836C01FFA37
:104768008CFC0CF1FF3C1FFA8CFCA4F836C0E38EDD
:104778009BB2B3B123689A6812F0020FE7D1FEF733
:104788005FFDC01BA84202D3B5F1FF3F01D1002D48
:10479800EDD1012384F85130002384F850300326EA
:1047A8001BE03A4629462046FFF756FE08B120236B
:1047B8006365A36833B901932368DA6801929B683B
:1047C8000193019B012384F85130002384F8503071
:1047D800636D13B9002600E00226304603B0BDE839
:1047E800F0830226F9E72DE9F04383B004468846B2
:1047F80091461F460A9DFEF723FD064694F8513060
:10480800DBB26268012B0AD0B2F5827F40F00581E5
:10481800A268002A40F00581042B40F00481B8F119
:10482800000F00F00281B9F1000F00F00081002FA5
:1048380000F0FF8094F85030012B00F0FC80012339
:1048480084F8503094F85130DBB2042B02D00523A1
:1048580084F8513000236365C4F83890E787A78748
:10486800C4F83080E786A7862364636423681A68DF
:1048780012F0400F03D11A6842F040021A60E36850
:10488800B3F5006F11D063680BB1012F0BD1226B08
:10489800236812781A73236B01332363E38E9BB268
:1048A800013B9BB2E386012771E063680BB1012FDE
:1048B8000BD1226B23681288DA60236B02332363DF
:1048C800E38E9BB2013B9BB2E38601271BE0236882
:1048D8009A6812F0010F0ED0E28F92B25AB1DA68DC
:1048E800A36B1A80A36B0233A363E38F9BB2013BD4
:1048F8009BB2E3870127FEF7A3FC801BA84202D3E3
:10490800B5F1FF3F1ED1E38E9BB21BB9E38F9BB27B
:10491800002B62D023689A6812F0020FD7D0E28E7B
:1049280092B2002AD3D0002FD1D0226B1288DA603D
:10493800236B02332363E38E9BB2013B9BB2E38676
:104948000027C4E7012384F85130002384F850304D
:10495800032063E023689A6812F0010F0ED0E28FFB
:1049680092B25AB1DA68A36B1A70A36B0133A363CE
:10497800E38F9BB2013B9BB2E3870127FEF760FC04
:10498800831BAB4202D3B5F1FF3F1ED1EDB1E38EDD
:104998009BB213B9E38F9BB2FBB123689A6812F0FC
:1049A800020FD7D0E28E92B2002AD3D0002FD1D0F6
:1049B800226B12781A73236B01332363E38E9BB245
:1049C800013B9BB2E3860027C4E7012384F85130FA
:1049D800002384F85030032020E032462946204640
:1049E800FFF73AFD90B9A36833B901932368DA68F1
:1049F80001929B680193019B012384F851300023A5
:104A080084F85030636D4BB1012007E020236365C3
:104A1800002384F85030012000E0022003B0BDE8F4
:104A2800F0830220FAE70220F8E70120F6E70120E8
:104A3800F4E70120F2E70220F0E72DE9F04383B024
:104A480090F85160F6B2012E40F0B48004468946D1
:104A580090461D464368B3F5827F01D1836893B3BE
:104A6800FEF7EEFB0746B9F1000F00F0A480B8F19D
:104A7800000F00F0A08094F85030012B00F09F80C8
:104A8800012384F85030042384F8513000236365EF
:104A9800C4F83890A4F83C80A4F83E802363A38629
:104AA800E38623646364A368B3F5004F15D02368D5
:104AB8001A6812F0400F03D11A6842F040021A60D7
:104AC800E368F3B143E0042380F8513000951346BE
:104AD8000A46FFF788FE06466DE02268136823F051
:104AE800400313602268136823F480431360DEE7F1
:104AF800FEF7A6FBC01BA84202D3B5F1FF3F15D1B4
:104B0800A5B1E38F9BB2002B42D023689A6812F0BC
:104B1800010FEDD0A26B1B7B1370A36B0133A36352
:104B2800E38F9BB2013B9BB2E387EAE7012384F85A
:104B38005130002384F8503003263CE0FEF780FB18
:104B4800C01BA84202D3B5F1FF3F19D1C5B1E38F0D
:104B58009BB2EBB123689A6812F0010FEED0DA68C5
:104B6800A36B1A80A36B0233A363B4F83EC01FFA89
:104B78008CFC0CF1FF3C1FFA8CFCA4F83EC0E6E765
:104B8800012384F85130002384F85030032612E0C2
:104B98003A4629462046FFF79FFC08B12023636563
:104BA800012384F85130002384F85030636D13B921
:104BB800002600E00226304603B0BDE8F083022656
:104BC800F9E7704710B584B00446026851689368E5
:104BD80003F04100012867D013F0020F02D011F052
:104BE800800F68D113F4B07F68D011F0200F65D022
:104BF80013F0400F0FD094F85100C0B203285FD0D3
:104C0800606D40F00400606500200090D06800905E
:104C180090680090009813F0200F0CD0606D40F061
:104C2800010060650020029090680290106820F0F2
:104C380040001060029A13F4807F09D0636D43F03E
:104C4800080363650023039323689B680393039B0E
:104C5800636D002B32D02268536823F0E003536061
:104C6800012384F8513011F0030F31D022685368C2
:104C780023F003035360E36C4BB1174A1A65E06CE9
:104C8800FEF740FF18B1636D43F040036365A36C02
:104C9800A3B1114A1A65A06CFEF734FF70B1636DB9
:104CA80043F04003636509E011F0400F94D0236C92
:104CB8002046984702E0636C2046984704B010BD30
:104CC80000230193D368019393680193019BF5E74F
:104CD8002046FFF776FFF1E7E54C000808B5806B42
:104CE8000023C387C386FFF76CFF08BD90F83D30EB
:104CF800DBB2012B37D1022380F83D300268D3683C
:104D080043F00103D3600368194A934220D0B3F1FA
:104D1800804F1DD0A2F57C42934219D002F58062E3
:104D2800934215D002F58062934211D002F5784281
:104D380093420DD002F57052934209D0A2F59432F5
:104D4800934205D01A6842F001021A6000207047A9
:104D58009A6802F00702062A07D01A6842F0010290
:104D68001A6000207047012070470020704700BF7C
:104D780000000140704770477047704770B504469F
:104D88000368DE681D6915F0020F10D016F0020FD7
:104D98000DD06FF002021A610123037703689B6943
:104DA80013F0030F5ED0FFF7E6FF0023237715F01B
:104DB800040F12D016F0040F0FD023686FF004020E
:104DC8001A610223237723689B6913F4407F4FD02D
:104DD8002046FFF7D0FF0023237715F0080F12D0E5
:104DE80016F0080F0FD023686FF008021A61042329
:104DF80023772368DB6913F0030F40D02046FFF7C1
:104E0800BAFF0023237715F0100F12D016F0100FF9
:104E18000FD023686FF010021A61082323772368E4
:104E2800DB6913F4407F31D02046FFF7A4FF00234D
:104E3800237715F0010F02D016F0010F2DD115F0D0
:104E4800800F02D016F0800F2FD115F0400F02D03E
:104E580016F0400F31D115F0200F02D016F0200FB8
:104E680033D170BDFFF786FF2046FFF785FF9CE72B
:104E78002046FFF77FFF2046FFF77EFFABE720467F
:104E8800FFF778FF2046FFF777FFBAE72046FFF7DE
:104E980071FF2046FFF770FFC9E723686FF0010232
:104EA8001A612046FDF72AFEC9E723686FF08002E1
:104EB8001A61204600F0F1F8C7E723686FF0400256
:104EC8001A612046FFF759FFC5E723686FF02002F3
:104ED8001A61204600F0E0F8C3E700000368344A8E
:104EE800904212D0B0F1804F0FD0A2F57C42904290
:104EF8000BD002F58062904207D002F580629042A2
:104F080003D002F57842904203D123F070034A6837
:104F18001343274A90422AD0B0F1804F27D0A2F5F8
:104F28007C42904223D002F5806290421FD002F565
:104F3800806290421BD002F57842904217D002F569
:104F48007052904213D002F5806290420FD002F561
:104F5800806290420BD0A2F59832904207D002F5B9
:104F68008062904203D002F58062904203D123F41C
:104F78004073CA68134323F080034A6913430360EC
:104F88008B68C3620B688362094B984203D003F5B0
:104F98008063984201D10B6903630123436103696C
:104FA80013F0010F03D0036923F001030361704775
:104FB8000000014040B310B5044690F83D30F3B10D
:104FC800022384F83D30214651F8040BFFF786FF91
:104FD800012384F8463084F83E3084F83F3084F862
:104FE800403084F8413084F8423084F8433084F803
:104FF800443084F8453084F83D30002010BD80F8F6
:105008003C30FEF787F8DBE70120704790F83C203A
:10501800012A3CD010B40346012280F83C20022229
:1050280080F83D2002685068946820F0700C086889
:1050380040EA0C0050601A68164882421AD0B2F151
:10504800804F17D0A0F57C40824213D000F58060D5
:1050580082420FD000F5806082420BD000F5784084
:10506800824207D000F57050824203D0A0F59430F8
:10507800824204D124F080044968214391600122CE
:1050880083F83D20002083F83C0010BC70470220C4
:10509800704700BF0000014070477047F8B50646EA
:1050A8000F4600F041FA324604460D463B4630466C
:1050B8003946FBF7DBFC90B900220023304639461D
:1050C800FBF7ACFC58B101F0E7FA2123036000229A
:1050D800002310461946FBF759FB04460D462046A7
:1050E8002946F8BD000000002DE9F84FBC4B21F01F
:1050F80000469E4204460D468B4618D9B94B9E423F
:1051080001D809D140B122462B4620462946FBF753
:105118005DF804460D4606E0BBF1000F40F323811D
:1051280093A5D5E9004520462946BDE8F88FAE4B42
:105138009E4211D8A3F1DE739E420AD88EA3D3E90A
:105148000023FBF743F8A94B0022FBF785FC002856
:10515800E9D14FF0FF3A27E000F09CF9A44B9E42BA
:1051680004460D4600F2B880A3F550239E4200F293
:105178009C8002460B46FBF729F89C4B0022FBF764
:1051880023F8002206460F464FF080432046294662
:10519800FBF71CF802460B4630463946FBF7F6FA91
:1051A8004FF0000A04460D4622462B462046294663
:1051B800FBF7C2F902460B4680468946FBF7BCF965
:1051C8006FA3D3E9002306460F46FBF7B5F96EA394
:1051D800D3E90023FAF7FAFF32463B46FBF7ACF96E
:1051E8006BA3D3E90023FAF7F1FF32463B46FBF7FE
:1051F800A3F969A3D3E90023FAF7E8FF32463B464F
:10520800FBF79AF966A3D3E90023FAF7DFFF3246E2
:105218003B46FBF791F964A3D3E90023FAF7D6FFDD
:1052280042464B46FBF788F961A3D3E90023804641
:10523800894630463946FBF77FF95FA3D3E9002357
:10524800FAF7C2FF32463B46FBF776F95CA3D3E98F
:105258000023FAF7B9FF32463B46FBF76DF95AA32C
:10526800D3E90023FAF7B0FF32463B46FBF764F96F
:1052780057A3D3E90023FAF7A7FF32463B46FBF7CB
:105288005BF902460B4640464946FAF79FFF22461D
:105298002B46FBF751F9BAF1FF3F02460B4644D1C2
:1052A80020462946FAF790FF33E7504B0022FAF7D9
:1052B8008BFF4E4B06460F46002220462946FAF73A
:1052C80085FF02460B4630463946FBF75FFA4FF03A
:1052D800010A04460D4667E7464B9E421AD2464BE2
:1052E8000022FAF771FF444B06460F46002220467B
:1052F8002946FBF721F93D4B0022FAF767FF0246E2
:105308000B4630463946FBF741FA4FF0020A04468D
:105318000D4649E702460B4600203849FBF736FAA6
:105328004FF0030A04460D463EE7354B354E03EB76
:10533800CA03D3E90023FAF747FF22462B46FAF7B8
:1053480043FF06EBCA0602460B46D6E90001FAF708
:105358003BFFBBF1000F04460D46BFF6E4AE01F17A
:1053680000431D46DFE61CA5D5E90045DBE600BF86
:10537800182D4454FB21F93F9C7500883CE4377E86
:1053880011DA22E33AAD903FEB0D76244B7BA93F2F
:10539800513DD0A0660DB13F6E204CC5CD45B73FFD
:1053A800FF8300922449C23F0D5555555555D53FA9
:1053B8002F6C6A2C44B4A2BF9AFDDE522DDEAD3F9D
:1053C8006D9A74AFF2B0B33F711623FEC671BC3F3D
:1053D800C4EB98999999C93F182D4454FB21F9BFFA
:1053E800FFFF0F440000F07FFFFFDB3F0000F03FAE
:1053F800FFFFF23F008003400000F83F0000F0BFCD
:10540800306800085068000830B5204D21F000448D
:10541800AC4287B002460B4606D80022002307B0EC
:10542800BDE8304000F058B9194DAC4203D9FAF73D
:10543800CBFE07B030BD02AA00F0C6FA00F00300A8
:10544800012809D0022811D0B8B9DDE90423DDE923
:10545800020100F041F9ECE70090DDE90423DDE901
:10546800020100F0F9F901F10041E2E7DDE9042366
:10547800DDE9020100F030F9F5E701230093DDE9E9
:105488000201DDE9042300F0E7F9D2E7FB21E93F57
:10549800FFFFEF7F21F000431946704730B5204DDC
:1054A80021F00044AC4287B002460B4606D80023E0
:1054B80000930022002300F0CFF904E0194DAC421C
:1054C80003D9FAF781FE07B030BD02AA00F07CFAD2
:1054D80000F00300012809D002280ED0C0B901232A
:1054E8000093DDE90201DDE90423E4E7DDE90423B3
:1054F800DDE9020100F0F0F8E5E701230093DDE9BA
:105508000201DDE9042300F0A7F901F10041DAE71F
:10551800DDE90423DDE9020100F0DEF8F5E700BF6C
:10552800FB21E93FFFFFEF7F674A8A432DE9F84FE8
:1055380006460F460B4604460ED10246FAF7FCFF14
:1055480002460B4630463946FAF740FE06460F46F5
:1055580030463946BDE8F88F00290CDC21F00042BE
:105568000243F5D089B10246FAF72EFE02460B46F1
:10557800FBF70CF9EAE70A1515D1002109E0E30A5F
:10558800153A6405002BFAD0F7E70A46FAE75B00FC
:105598000131D802FBD5481E121AC1F1200024FAA5
:1055A80000F003438C40C3F31303A2F2FF3743F424
:1055B8008013D2075CBF5B0003EBD4734FEA43034D
:1055C80058BF6400002603EBD4737F1064001621D3
:1055D80032464FF4001015189D42DEBF2A185B1B97
:1055E8003618E50F013905EB43034FEA44044FEA47
:1055F8005000F0D10D464FF0200A4FF000409A427B
:1056080001EB000C02DB13D1A44511D8BCF1000F4B
:105618000CEB000142DA002940DB02F1010E9B1A73
:10562800A44588BF03F1FF33A4EB0C04054472467C
:105638004FEAD47CBAF1010A0CEB43034FEA440465
:105648004FEA5000DBD11C431AD0204CDFF880B061
:10565800D4E90001DBE90023FAF7B6FDD4E90089B3
:1056680002460B4640464946FBF7E2F940B1B5F120
:10567800FF3FD4E90001DBE9002311D1013655468B
:1056880072106B08F10702F17F5202F5001248BF51
:1056980043F0004302EB0751184657E79646BEE72A
:1056A800FAF794FDD4E9008902460B46404649467C
:1056B800FBF7B4F920B1A81C08BF01360235DFE7B3
:1056C8006B1C23F00105DBE70000F07F30000020B1
:1056D80028000020000000002DE9F74F21F00046C7
:1056E800B6F1795FCDE900238046894604D2FBF7FD
:1056F800D3F9002800F0868042464B46404649468A
:10570800FAF71AFF4E4B002204460D46FAF714FF2B
:105718003FA3D3E9002382468B4620462946FAF761
:105728000BFF3DA3D3E90023FAF750FD22462B4691
:10573800FAF702FF3AA3D3E90023FAF745FD224618
:105748002B46FAF7F9FE38A3D3E90023FAF73EFD12
:1057580022462B46FAF7F0FE35A3D3E90023FAF7E1
:1057680033FD22462B46FAF7E7FE33A3D3E900239D
:10577800FAF72CFD22462B46FAF7DEFE22462B4688
:10578800FAF7DAFEDDE9002304460D4640464946AD
:10579800FAF7D2FE0B46024629462046FAF714FDD0
:1057A800284B9E42804689460ED802460B465046F4
:1057B8005946FAF709FD0B46234902460020FAF735
:1057C80003FD03B0BDE8F08F204B1F499E428CBFFC
:1057D8001F4DA6F50015002422462B460020FAF797
:1057E800F3FC224606460F462B4650465946FAF722
:1057F800EBFC42464B46FAF7E7FC02460B463046BE
:105808003946DCE710490020DBE700BFAFF3008032
:10581800D43888BEE9FAA8BDC4B1B4BD9EEE213E15
:10582800AD529C804F7E923E9015CB19A001FA3E56
:105838007751C1166CC1563F4C5555555555A53F26
:105848000000E03F3233D33F0000F03F0000E93F63
:105858000000D23F000000002DE9F04F1F4621F064
:105868000043B3F1795F85B004460D46164603D26E
:10587800FBF712F9002851D022462B46204629462C
:10588800FAF75AFE82468B4602460B4620462946C0
:10589800FAF752FE3EA3D3E90023804689465046D4
:1058A8005946FAF749FE3CA3D3E90023FAF78CFCE2
:1058B80052465B46FAF740FE39A3D3E90023FAF7CC
:1058C80085FC52465B46FAF737FE37A3D3E9002337
:1058D800FAF77AFC52465B46FAF72EFE34A3D3E970
:1058E8000023FAF773FC0E9BCDE90001DBB90246F1
:1058F8000B4650465946FAF71FFE2FA3D3E900235B
:10590800FAF762FC42464B46FAF716FE02460B4689
:1059180020462946FAF75AFC04460D4620462946F1
:1059280005B0BDE8F08F264B002230463946FAF71D
:1059380003FEDDE90023CDE9020140464946FAF7B6
:10594800FBFD02460B46DDE90201FAF73DFC524633
:105958005B46FAF7F1FD32463B46FAF735FC16A3EB
:10596800D3E9002306460F4640464946FAF7E4FDC8
:1059780002460B4630463946FAF728FC02460B46E3
:1059880020462946FAF720FCC6E700BFAFF300809F
:105998007CD5CF5A3AD9E53DEB9C2B8AE6E55A3EB1
:1059A8007DFEB157E31DC73ED561C119A0012A3F4D
:1059B800A6F810111111813F495555555555C53F48
:1059C8000000E03F000000002DE9F04FC44B8DB00F
:1059D80021F00048984506460F461446049107D81A
:1059E800C2E9006700230022C4E90223002526E05B
:1059F800BC4B984576D8049BBB4D002BAAA3D3E992
:105A0800002338DDFAF7E0FBA84506460F461AD012
:105A1800A7A3D3E90023FAF7D7FB02460B46804633
:105A2800894630463946FAF7CFFBA1A3D3E90023CC
:105A3800FAF7CAFBC4E90089C4E90201012528462E
:105A48000DB0BDE8F08F9CA3D3E90023FAF7BCFBA7
:105A58009BA3D3E9002306460F46FAF7B5FB024697
:105A68000B468046894630463946FAF7ADFB94A383
:105A7800D3E90023DCE7FAF7A9FBA84506460F4659
:105A880018D08BA3D3E90023FAF7A0FB02460B46F4
:105A98008046894630463946FAF796FB84A3D3E90F
:105AA8000023FAF793FB4FF0FF35C4E90089C4E9F6
:105AB8000201C4E780A3D3E90023FAF787FB80A398
:105AC800D3E9002306460F46FAF780FB02460B4649
